{
  "_format": "hh-sol-artifact-1",
  "contractName": "ExampleOracleSimple",
  "sourceName": "contracts/ExampleOracleSimple.sol",
  "abi": [
    {
      "inputs": [
        {
          "internalType": "address",
          "name": "factory",
          "type": "address"
        },
        {
          "internalType": "address",
          "name": "tokenA",
          "type": "address"
        },
        {
          "internalType": "address",
          "name": "tokenB",
          "type": "address"
        }
      ],
      "stateMutability": "nonpayable",
      "type": "constructor"
    },
    {
      "anonymous": false,
      "inputs": [
        {
          "indexed": false,
          "internalType": "address",
          "name": "token0",
          "type": "address"
        },
        {
          "indexed": false,
          "internalType": "address",
          "name": "token1",
          "type": "address"
        },
        {
          "indexed": false,
          "internalType": "uint256",
          "name": "amountIn",
          "type": "uint256"
        },
        {
          "indexed": false,
          "internalType": "uint256",
          "name": "amountOut",
          "type": "uint256"
        }
      ],
      "name": "Consult",
      "type": "event"
    },
    {
      "inputs": [],
      "name": "PERIOD",
      "outputs": [
        {
          "internalType": "uint256",
          "name": "",
          "type": "uint256"
        }
      ],
      "stateMutability": "view",
      "type": "function"
    },
    {
      "inputs": [],
      "name": "blockTimestampLast",
      "outputs": [
        {
          "internalType": "uint32",
          "name": "",
          "type": "uint32"
        }
      ],
      "stateMutability": "view",
      "type": "function"
    },
    {
      "inputs": [
        {
          "internalType": "address",
          "name": "_token0",
          "type": "address"
        },
        {
          "internalType": "address",
          "name": "_token1",
          "type": "address"
        },
        {
          "internalType": "uint256",
          "name": "amountIn",
          "type": "uint256"
        }
      ],
      "name": "consult",
      "outputs": [
        {
          "internalType": "uint256",
          "name": "amountOut",
          "type": "uint256"
        }
      ],
      "stateMutability": "nonpayable",
      "type": "function"
    },
    {
      "inputs": [],
      "name": "price0Average",
      "outputs": [
        {
          "internalType": "uint224",
          "name": "_x",
          "type": "uint224"
        }
      ],
      "stateMutability": "view",
      "type": "function"
    },
    {
      "inputs": [],
      "name": "price0CumulativeLast",
      "outputs": [
        {
          "internalType": "uint256",
          "name": "",
          "type": "uint256"
        }
      ],
      "stateMutability": "view",
      "type": "function"
    },
    {
      "inputs": [],
      "name": "price1Average",
      "outputs": [
        {
          "internalType": "uint224",
          "name": "_x",
          "type": "uint224"
        }
      ],
      "stateMutability": "view",
      "type": "function"
    },
    {
      "inputs": [],
      "name": "price1CumulativeLast",
      "outputs": [
        {
          "internalType": "uint256",
          "name": "",
          "type": "uint256"
        }
      ],
      "stateMutability": "view",
      "type": "function"
    },
    {
      "inputs": [],
      "name": "token0",
      "outputs": [
        {
          "internalType": "address",
          "name": "",
          "type": "address"
        }
      ],
      "stateMutability": "view",
      "type": "function"
    },
    {
      "inputs": [],
      "name": "token1",
      "outputs": [
        {
          "internalType": "address",
          "name": "",
          "type": "address"
        }
      ],
      "stateMutability": "view",
      "type": "function"
    },
    {
      "inputs": [],
      "name": "update",
      "outputs": [],
      "stateMutability": "nonpayable",
      "type": "function"
    }
  ],
  "bytecode": "0x60e06040523480156200001157600080fd5b50604051620021ab380380620021ab833981810160405281019062000037919062000678565b6000620000518484846200043c60201b6200072d1760201c565b90508073ffffffffffffffffffffffffffffffffffffffff1660808173ffffffffffffffffffffffffffffffffffffffff1660601b815250508073ffffffffffffffffffffffffffffffffffffffff16630dfe16816040518163ffffffff1660e01b815260040160206040518083038186803b158015620000d157600080fd5b505afa158015620000e6573d6000803e3d6000fd5b505050506040513d601f19601f820116820180604052508101906200010c91906200064c565b73ffffffffffffffffffffffffffffffffffffffff1660a08173ffffffffffffffffffffffffffffffffffffffff1660601b815250508073ffffffffffffffffffffffffffffffffffffffff1663d21220a76040518163ffffffff1660e01b815260040160206040518083038186803b1580156200018957600080fd5b505afa1580156200019e573d6000803e3d6000fd5b505050506040513d601f19601f82011682018060405250810190620001c491906200064c565b73ffffffffffffffffffffffffffffffffffffffff1660c08173ffffffffffffffffffffffffffffffffffffffff1660601b815250508073ffffffffffffffffffffffffffffffffffffffff16635909c0d56040518163ffffffff1660e01b815260040160206040518083038186803b1580156200024157600080fd5b505afa15801562000256573d6000803e3d6000fd5b505050506040513d601f19601f820116820180604052508101906200027c919062000724565b6000819055508073ffffffffffffffffffffffffffffffffffffffff16635a3d54936040518163ffffffff1660e01b815260040160206040518083038186803b158015620002c957600080fd5b505afa158015620002de573d6000803e3d6000fd5b505050506040513d601f19601f8201168201806040525081019062000304919062000724565b6001819055506000808273ffffffffffffffffffffffffffffffffffffffff16630902f1ac6040518163ffffffff1660e01b815260040160606040518083038186803b1580156200035457600080fd5b505afa15801562000369573d6000803e3d6000fd5b505050506040513d601f19601f820116820180604052508101906200038f9190620006ce565b600260008291906101000a81548163ffffffff021916908363ffffffff1602179055508193508294505050506000826dffffffffffffffffffffffffffff1614158015620003ee57506000816dffffffffffffffffffffffffffff1614155b62000430576040517f08c379a0000000000000000000000000000000000000000000000000000000008152600401620004279062000992565b60405180910390fd5b50505050505062000b0b565b6000806000620004538585620004ba60201b60201c565b915091508582826040516020016200046d929190620008f6565b604051602081830303815290604052805190602001206040516020016200049692919062000926565b6040516020818303038152906040528051906020012060001c925050509392505050565b6000808273ffffffffffffffffffffffffffffffffffffffff168473ffffffffffffffffffffffffffffffffffffffff1614156200052f576040517f08c379a0000000000000000000000000000000000000000000000000000000008152600401620005269062000970565b60405180910390fd5b8273ffffffffffffffffffffffffffffffffffffffff168473ffffffffffffffffffffffffffffffffffffffff16106200056b5782846200056e565b83835b8092508193505050600073ffffffffffffffffffffffffffffffffffffffff168273ffffffffffffffffffffffffffffffffffffffff161415620005e9576040517f08c379a0000000000000000000000000000000000000000000000000000000008152600401620005e090620009b4565b60405180910390fd5b9250929050565b600081519050620006018162000aa3565b92915050565b600081519050620006188162000abd565b92915050565b6000815190506200062f8162000ad7565b92915050565b600081519050620006468162000af1565b92915050565b6000602082840312156200065f57600080fd5b60006200066f84828501620005f0565b91505092915050565b6000806000606084860312156200068e57600080fd5b60006200069e86828701620005f0565b9350506020620006b186828701620005f0565b9250506040620006c486828701620005f0565b9150509250925092565b600080600060608486031215620006e457600080fd5b6000620006f48682870162000607565b9350506020620007078682870162000607565b92505060406200071a8682870162000635565b9150509250925092565b6000602082840312156200073757600080fd5b600062000747848285016200061e565b91505092915050565b620007656200075f82620009f2565b62000a64565b82525050565b620007806200077a8262000a06565b62000a78565b82525050565b600062000795602583620009d6565b91507f556e697377617056324c6962726172793a204944454e544943414c5f4144445260008301527f45535345530000000000000000000000000000000000000000000000000000006020830152604082019050919050565b6000620007fd602083620009d6565b91507f4578616d706c654f7261636c6553696d706c653a204e4f5f52455345525645536000830152602082019050919050565b60006200083f602083620009e7565b91507f96e8ac4277198ff8b6f785478aa9a39f403cb768dd02cbee326c3e7da348845f6000830152602082019050919050565b600062000881600183620009e7565b91507fff000000000000000000000000000000000000000000000000000000000000006000830152600182019050919050565b6000620008c3601e83620009d6565b91507f556e697377617056324c6962726172793a205a45524f5f4144445245535300006000830152602082019050919050565b600062000904828562000750565b60148201915062000916828462000750565b6014820191508190509392505050565b6000620009338262000872565b915062000941828562000750565b6014820191506200095382846200076b565b602082019150620009648262000830565b91508190509392505050565b600060208201905081810360008301526200098b8162000786565b9050919050565b60006020820190508181036000830152620009ad81620007ee565b9050919050565b60006020820190508181036000830152620009cf81620008b4565b9050919050565b600082825260208201905092915050565b600081905092915050565b6000620009ff8262000a2a565b9050919050565b6000819050919050565b60006dffffffffffffffffffffffffffff82169050919050565b600073ffffffffffffffffffffffffffffffffffffffff82169050919050565b6000819050919050565b600063ffffffff82169050919050565b600062000a718262000a82565b9050919050565b6000819050919050565b600062000a8f8262000a96565b9050919050565b60008160601b9050919050565b62000aae81620009f2565b811462000aba57600080fd5b50565b62000ac88162000a10565b811462000ad457600080fd5b50565b62000ae28162000a4a565b811462000aee57600080fd5b50565b62000afc8162000a54565b811462000b0857600080fd5b50565b60805160601c60a05160601c60c05160601c61165962000b5260003960008181610339015261070b0152600081816101cf0152610235015260006104d201526116596000f3fe608060405234801561001057600080fd5b506004361061009e5760003560e01c8063a2e6204511610066578063a2e620451461014b578063a6bb453914610155578063b4d1d79514610173578063c5700a0214610191578063d21220a7146101af5761009e565b80630dfe1681146100a35780635909c0d5146100c15780635a3d5493146100df5780635e6aaf2c146100fd578063636cfa0c1461011b575b600080fd5b6100ab6101cd565b6040516100b8919061117e565b60405180910390f35b6100c96101f1565b6040516100d69190611299565b60405180910390f35b6100e76101f7565b6040516100f49190611299565b60405180910390f35b6101056101fd565b604051610112919061127e565b60405180910390f35b61013560048036038101906101309190610dad565b610231565b6040516101429190611299565b60405180910390f35b6101536104c8565b005b61015d6106ba565b60405161016a919061127e565b60405180910390f35b61017b6106ee565b6040516101889190611299565b60405180910390f35b6101996106f3565b6040516101a691906112b4565b60405180910390f35b6101b7610709565b6040516101c4919061117e565b60405180910390f35b7f000000000000000000000000000000000000000000000000000000000000000081565b60005481565b60015481565b60048060000160009054906101000a90047bffffffffffffffffffffffffffffffffffffffffffffffffffffffff16905081565b60007f000000000000000000000000000000000000000000000000000000000000000073ffffffffffffffffffffffffffffffffffffffff168473ffffffffffffffffffffffffffffffffffffffff1614156103375761031c6103178360036040518060200160405290816000820160009054906101000a90047bffffffffffffffffffffffffffffffffffffffffffffffffffffffff167bffffffffffffffffffffffffffffffffffffffffffffffffffffffff167bffffffffffffffffffffffffffffffffffffffffffffffffffffffff168152505061079f90919063ffffffff16565b61086a565b71ffffffffffffffffffffffffffffffffffff169050610471565b7f000000000000000000000000000000000000000000000000000000000000000073ffffffffffffffffffffffffffffffffffffffff168473ffffffffffffffffffffffffffffffffffffffff16146103c5576040517f08c379a00000000000000000000000000000000000000000000000000000000081526004016103bc906111fe565b60405180910390fd5b61045a6104558360046040518060200160405290816000820160009054906101000a90047bffffffffffffffffffffffffffffffffffffffffffffffffffffffff167bffffffffffffffffffffffffffffffffffffffffffffffffffffffff167bffffffffffffffffffffffffffffffffffffffffffffffffffffffff168152505061079f90919063ffffffff16565b61086a565b71ffffffffffffffffffffffffffffffffffff1690505b6402540be400816104829190611372565b90507f33618b544b19685daab1df7cfadd7420c958b280dc57254ad32f21c3bae45927848484846040516104b99493929190611199565b60405180910390a19392505050565b60008060006104f67f000000000000000000000000000000000000000000000000000000000000000061087f565b9250925092506000600260009054906101000a900463ffffffff168261051c9190611431565b9050603c8163ffffffff16101561053657505050506106b8565b60405180602001604052808263ffffffff166000548761055691906113fd565b6105609190611372565b7bffffffffffffffffffffffffffffffffffffffffffffffffffffffff16815250600360008201518160000160006101000a8154817bffffffffffffffffffffffffffffffffffffffffffffffffffffffff02191690837bffffffffffffffffffffffffffffffffffffffffffffffffffffffff16021790555090505060405180602001604052808263ffffffff16600154866105fd91906113fd565b6106079190611372565b7bffffffffffffffffffffffffffffffffffffffffffffffffffffffff16815250600460008201518160000160006101000a8154817bffffffffffffffffffffffffffffffffffffffffffffffffffffffff02191690837bffffffffffffffffffffffffffffffffffffffffffffffffffffffff160217905550905050836000819055508260018190555081600260006101000a81548163ffffffff021916908363ffffffff160217905550505050505b565b60038060000160009054906101000a90047bffffffffffffffffffffffffffffffffffffffffffffffffffffffff16905081565b603c81565b600260009054906101000a900463ffffffff1681565b7f000000000000000000000000000000000000000000000000000000000000000081565b600080600061073c8585610ada565b91509150858282604051602001610754929190611110565b6040516020818303038152906040528051906020012060405160200161077b92919061113c565b6040516020818303038152906040528051906020012060001c925050509392505050565b6107a7610d00565b600080831480610813575083600001517bffffffffffffffffffffffffffffffffffffffffffffffffffffffff16838486600001517bffffffffffffffffffffffffffffffffffffffffffffffffffffffff1661080491906113a3565b9250826108119190611372565b145b610852576040517f08c379a00000000000000000000000000000000000000000000000000000000081526004016108499061121e565b60405180910390fd5b60405180602001604052808281525091505092915050565b6000607060ff168260000151901c9050919050565b600080600061088c610c08565b90508373ffffffffffffffffffffffffffffffffffffffff16635909c0d56040518163ffffffff1660e01b815260040160206040518083038186803b1580156108d457600080fd5b505afa1580156108e8573d6000803e3d6000fd5b505050506040513d601f19601f8201168201806040525081019061090c9190610e4b565b92508373ffffffffffffffffffffffffffffffffffffffff16635a3d54936040518163ffffffff1660e01b815260040160206040518083038186803b15801561095457600080fd5b505afa158015610968573d6000803e3d6000fd5b505050506040513d601f19601f8201168201806040525081019061098c9190610e4b565b915060008060008673ffffffffffffffffffffffffffffffffffffffff16630902f1ac6040518163ffffffff1660e01b815260040160606040518083038186803b1580156109d957600080fd5b505afa1580156109ed573d6000803e3d6000fd5b505050506040513d601f19601f82011682018060405250810190610a119190610dfc565b9250925092508363ffffffff168163ffffffff1614610ad05760008185610a389190611431565b90508063ffffffff16610a4b8486610c20565b600001517bffffffffffffffffffffffffffffffffffffffffffffffffffffffff16610a7791906113a3565b87610a8291906112eb565b96508063ffffffff16610a958585610c20565b600001517bffffffffffffffffffffffffffffffffffffffffffffffffffffffff16610ac191906113a3565b86610acc91906112eb565b9550505b5050509193909250565b6000808273ffffffffffffffffffffffffffffffffffffffff168473ffffffffffffffffffffffffffffffffffffffff161415610b4c576040517f08c379a0000000000000000000000000000000000000000000000000000000008152600401610b43906111de565b60405180910390fd5b8273ffffffffffffffffffffffffffffffffffffffff168473ffffffffffffffffffffffffffffffffffffffff1610610b86578284610b89565b83835b8092508193505050600073ffffffffffffffffffffffffffffffffffffffff168273ffffffffffffffffffffffffffffffffffffffff161415610c01576040517f08c379a0000000000000000000000000000000000000000000000000000000008152600401610bf89061123e565b60405180910390fd5b9250929050565b600064010000000042610c1b919061152b565b905090565b610c28610d13565b6000826dffffffffffffffffffffffffffff1611610c7b576040517f08c379a0000000000000000000000000000000000000000000000000000000008152600401610c729061125e565b60405180910390fd5b6040518060200160405280836dffffffffffffffffffffffffffff16607060ff16866dffffffffffffffffffffffffffff167bffffffffffffffffffffffffffffffffffffffffffffffffffffffff16901b610cd79190611341565b7bffffffffffffffffffffffffffffffffffffffffffffffffffffffff16815250905092915050565b6040518060200160405280600081525090565b604051806020016040528060007bffffffffffffffffffffffffffffffffffffffffffffffffffffffff1681525090565b600081359050610d53816115c7565b92915050565b600081519050610d68816115de565b92915050565b600081359050610d7d816115f5565b92915050565b600081519050610d92816115f5565b92915050565b600081519050610da78161160c565b92915050565b600080600060608486031215610dc257600080fd5b6000610dd086828701610d44565b9350506020610de186828701610d44565b9250506040610df286828701610d6e565b9150509250925092565b600080600060608486031215610e1157600080fd5b6000610e1f86828701610d59565b9350506020610e3086828701610d59565b9250506040610e4186828701610d98565b9150509250925092565b600060208284031215610e5d57600080fd5b6000610e6b84828501610d83565b91505092915050565b610e7d81611465565b82525050565b610e94610e8f82611465565b6114fd565b82525050565b610eab610ea682611477565b61150f565b82525050565b6000610ebe6025836112cf565b91507f556e697377617056324c6962726172793a204944454e544943414c5f4144445260008301527f45535345530000000000000000000000000000000000000000000000000000006020830152604082019050919050565b6000610f246020836112e0565b91507f96e8ac4277198ff8b6f785478aa9a39f403cb768dd02cbee326c3e7da348845f6000830152602082019050919050565b6000610f646022836112cf565b91507f4578616d706c654f7261636c6553696d706c653a20494e56414c49445f544f4b60008301527f454e0000000000000000000000000000000000000000000000000000000000006020830152604082019050919050565b6000610fca6001836112e0565b91507fff000000000000000000000000000000000000000000000000000000000000006000830152600182019050919050565b600061100a6023836112cf565b91507f4669786564506f696e743a204d554c5449504c49434154494f4e5f4f5645524660008301527f4c4f5700000000000000000000000000000000000000000000000000000000006020830152604082019050919050565b6000611070601e836112cf565b91507f556e697377617056324c6962726172793a205a45524f5f4144445245535300006000830152602082019050919050565b60006110b06017836112cf565b91507f4669786564506f696e743a204449565f42595f5a45524f0000000000000000006000830152602082019050919050565b6110ec816114bb565b82525050565b6110fb816114e3565b82525050565b61110a816114ed565b82525050565b600061111c8285610e83565b60148201915061112c8284610e83565b6014820191508190509392505050565b600061114782610fbd565b91506111538285610e83565b6014820191506111638284610e9a565b60208201915061117282610f17565b91508190509392505050565b60006020820190506111936000830184610e74565b92915050565b60006080820190506111ae6000830187610e74565b6111bb6020830186610e74565b6111c860408301856110f2565b6111d560608301846110f2565b95945050505050565b600060208201905081810360008301526111f781610eb1565b9050919050565b6000602082019050818103600083015261121781610f57565b9050919050565b6000602082019050818103600083015261123781610ffd565b9050919050565b6000602082019050818103600083015261125781611063565b9050919050565b60006020820190508181036000830152611277816110a3565b9050919050565b600060208201905061129360008301846110e3565b92915050565b60006020820190506112ae60008301846110f2565b92915050565b60006020820190506112c96000830184611101565b92915050565b600082825260208201905092915050565b600081905092915050565b60006112f6826114e3565b9150611301836114e3565b9250827fffffffffffffffffffffffffffffffffffffffffffffffffffffffffffffffff038211156113365761133561155c565b5b828201905092915050565b600061134c826114bb565b9150611357836114bb565b9250826113675761136661158b565b5b828204905092915050565b600061137d826114e3565b9150611388836114e3565b9250826113985761139761158b565b5b828204905092915050565b60006113ae826114e3565b91506113b9836114e3565b9250817fffffffffffffffffffffffffffffffffffffffffffffffffffffffffffffffff04831182151516156113f2576113f161155c565b5b828202905092915050565b6000611408826114e3565b9150611413836114e3565b9250828210156114265761142561155c565b5b828203905092915050565b600061143c826114ed565b9150611447836114ed565b92508282101561145a5761145961155c565b5b828203905092915050565b60006114708261149b565b9050919050565b6000819050919050565b60006dffffffffffffffffffffffffffff82169050919050565b600073ffffffffffffffffffffffffffffffffffffffff82169050919050565b60007bffffffffffffffffffffffffffffffffffffffffffffffffffffffff82169050919050565b6000819050919050565b600063ffffffff82169050919050565b600061150882611519565b9050919050565b6000819050919050565b6000611524826115ba565b9050919050565b6000611536826114e3565b9150611541836114e3565b9250826115515761155061158b565b5b828206905092915050565b7f4e487b7100000000000000000000000000000000000000000000000000000000600052601160045260246000fd5b7f4e487b7100000000000000000000000000000000000000000000000000000000600052601260045260246000fd5b60008160601b9050919050565b6115d081611465565b81146115db57600080fd5b50565b6115e781611481565b81146115f257600080fd5b50565b6115fe816114e3565b811461160957600080fd5b50565b611615816114ed565b811461162057600080fd5b5056fea2646970667358221220f5b44109ba08b52bf534cb93d52dc157794957d5aaebe8fca01c174d90c46c6264736f6c63430008000033",
  "linkReferences": {},
  "deployedLinkReferences": {}
}