{
  "contracts/ExampleOracleSimple.sol": {
    "ExampleOracleSimple": {
      "abi": [
        {
          "inputs": [
            {
              "internalType": "address",
              "name": "factory",
              "type": "address"
            },
            {
              "internalType": "address",
              "name": "tokenA",
              "type": "address"
            },
            {
              "internalType": "address",
              "name": "tokenB",
              "type": "address"
            }
          ],
          "stateMutability": "nonpayable",
          "type": "constructor"
        },
        {
          "anonymous": false,
          "inputs": [
            {
              "indexed": false,
              "internalType": "address",
              "name": "token0",
              "type": "address"
            },
            {
              "indexed": false,
              "internalType": "address",
              "name": "token1",
              "type": "address"
            },
            {
              "indexed": false,
              "internalType": "uint256",
              "name": "amountIn",
              "type": "uint256"
            },
            {
              "indexed": false,
              "internalType": "uint256",
              "name": "amountOut",
              "type": "uint256"
            }
          ],
          "name": "Consult",
          "type": "event"
        },
        {
          "inputs": [],
          "name": "PERIOD",
          "outputs": [
            {
              "internalType": "uint256",
              "name": "",
              "type": "uint256"
            }
          ],
          "stateMutability": "view",
          "type": "function"
        },
        {
          "inputs": [],
          "name": "blockTimestampLast",
          "outputs": [
            {
              "internalType": "uint32",
              "name": "",
              "type": "uint32"
            }
          ],
          "stateMutability": "view",
          "type": "function"
        },
        {
          "inputs": [
            {
              "internalType": "address",
              "name": "_token0",
              "type": "address"
            },
            {
              "internalType": "address",
              "name": "_token1",
              "type": "address"
            },
            {
              "internalType": "uint256",
              "name": "amountIn",
              "type": "uint256"
            }
          ],
          "name": "consult",
          "outputs": [
            {
              "internalType": "uint256",
              "name": "amountOut",
              "type": "uint256"
            }
          ],
          "stateMutability": "nonpayable",
          "type": "function"
        },
        {
          "inputs": [],
          "name": "price0Average",
          "outputs": [
            {
              "internalType": "uint224",
              "name": "_x",
              "type": "uint224"
            }
          ],
          "stateMutability": "view",
          "type": "function"
        },
        {
          "inputs": [],
          "name": "price0CumulativeLast",
          "outputs": [
            {
              "internalType": "uint256",
              "name": "",
              "type": "uint256"
            }
          ],
          "stateMutability": "view",
          "type": "function"
        },
        {
          "inputs": [],
          "name": "price1Average",
          "outputs": [
            {
              "internalType": "uint224",
              "name": "_x",
              "type": "uint224"
            }
          ],
          "stateMutability": "view",
          "type": "function"
        },
        {
          "inputs": [],
          "name": "price1CumulativeLast",
          "outputs": [
            {
              "internalType": "uint256",
              "name": "",
              "type": "uint256"
            }
          ],
          "stateMutability": "view",
          "type": "function"
        },
        {
          "inputs": [],
          "name": "token0",
          "outputs": [
            {
              "internalType": "address",
              "name": "",
              "type": "address"
            }
          ],
          "stateMutability": "view",
          "type": "function"
        },
        {
          "inputs": [],
          "name": "token1",
          "outputs": [
            {
              "internalType": "address",
              "name": "",
              "type": "address"
            }
          ],
          "stateMutability": "view",
          "type": "function"
        },
        {
          "inputs": [],
          "name": "update",
          "outputs": [],
          "stateMutability": "nonpayable",
          "type": "function"
        }
      ],
      "evm": {
        "bytecode": {
          "linkReferences": {},
          "object": "60e06040523480156200001157600080fd5b506040516200219838038062002198833981810160405281019062000037919062000678565b6000620000518484846200043c60201b6200071a1760201c565b90508073ffffffffffffffffffffffffffffffffffffffff1660808173ffffffffffffffffffffffffffffffffffffffff1660601b815250508073ffffffffffffffffffffffffffffffffffffffff16630dfe16816040518163ffffffff1660e01b815260040160206040518083038186803b158015620000d157600080fd5b505afa158015620000e6573d6000803e3d6000fd5b505050506040513d601f19601f820116820180604052508101906200010c91906200064c565b73ffffffffffffffffffffffffffffffffffffffff1660a08173ffffffffffffffffffffffffffffffffffffffff1660601b815250508073ffffffffffffffffffffffffffffffffffffffff1663d21220a76040518163ffffffff1660e01b815260040160206040518083038186803b1580156200018957600080fd5b505afa1580156200019e573d6000803e3d6000fd5b505050506040513d601f19601f82011682018060405250810190620001c491906200064c565b73ffffffffffffffffffffffffffffffffffffffff1660c08173ffffffffffffffffffffffffffffffffffffffff1660601b815250508073ffffffffffffffffffffffffffffffffffffffff16635909c0d56040518163ffffffff1660e01b815260040160206040518083038186803b1580156200024157600080fd5b505afa15801562000256573d6000803e3d6000fd5b505050506040513d601f19601f820116820180604052508101906200027c919062000724565b6000819055508073ffffffffffffffffffffffffffffffffffffffff16635a3d54936040518163ffffffff1660e01b815260040160206040518083038186803b158015620002c957600080fd5b505afa158015620002de573d6000803e3d6000fd5b505050506040513d601f19601f8201168201806040525081019062000304919062000724565b6001819055506000808273ffffffffffffffffffffffffffffffffffffffff16630902f1ac6040518163ffffffff1660e01b815260040160606040518083038186803b1580156200035457600080fd5b505afa15801562000369573d6000803e3d6000fd5b505050506040513d601f19601f820116820180604052508101906200038f9190620006ce565b600260008291906101000a81548163ffffffff021916908363ffffffff1602179055508193508294505050506000826dffffffffffffffffffffffffffff1614158015620003ee57506000816dffffffffffffffffffffffffffff1614155b62000430576040517f08c379a0000000000000000000000000000000000000000000000000000000008152600401620004279062000992565b60405180910390fd5b50505050505062000b0b565b6000806000620004538585620004ba60201b60201c565b915091508582826040516020016200046d929190620008f6565b604051602081830303815290604052805190602001206040516020016200049692919062000926565b6040516020818303038152906040528051906020012060001c925050509392505050565b6000808273ffffffffffffffffffffffffffffffffffffffff168473ffffffffffffffffffffffffffffffffffffffff1614156200052f576040517f08c379a0000000000000000000000000000000000000000000000000000000008152600401620005269062000970565b60405180910390fd5b8273ffffffffffffffffffffffffffffffffffffffff168473ffffffffffffffffffffffffffffffffffffffff16106200056b5782846200056e565b83835b8092508193505050600073ffffffffffffffffffffffffffffffffffffffff168273ffffffffffffffffffffffffffffffffffffffff161415620005e9576040517f08c379a0000000000000000000000000000000000000000000000000000000008152600401620005e090620009b4565b60405180910390fd5b9250929050565b600081519050620006018162000aa3565b92915050565b600081519050620006188162000abd565b92915050565b6000815190506200062f8162000ad7565b92915050565b600081519050620006468162000af1565b92915050565b6000602082840312156200065f57600080fd5b60006200066f84828501620005f0565b91505092915050565b6000806000606084860312156200068e57600080fd5b60006200069e86828701620005f0565b9350506020620006b186828701620005f0565b9250506040620006c486828701620005f0565b9150509250925092565b600080600060608486031215620006e457600080fd5b6000620006f48682870162000607565b9350506020620007078682870162000607565b92505060406200071a8682870162000635565b9150509250925092565b6000602082840312156200073757600080fd5b600062000747848285016200061e565b91505092915050565b620007656200075f82620009f2565b62000a64565b82525050565b620007806200077a8262000a06565b62000a78565b82525050565b600062000795602583620009d6565b91507f556e697377617056324c6962726172793a204944454e544943414c5f4144445260008301527f45535345530000000000000000000000000000000000000000000000000000006020830152604082019050919050565b6000620007fd602083620009d6565b91507f4578616d706c654f7261636c6553696d706c653a204e4f5f52455345525645536000830152602082019050919050565b60006200083f602083620009e7565b91507f96e8ac4277198ff8b6f785478aa9a39f403cb768dd02cbee326c3e7da348845f6000830152602082019050919050565b600062000881600183620009e7565b91507fff000000000000000000000000000000000000000000000000000000000000006000830152600182019050919050565b6000620008c3601e83620009d6565b91507f556e697377617056324c6962726172793a205a45524f5f4144445245535300006000830152602082019050919050565b600062000904828562000750565b60148201915062000916828462000750565b6014820191508190509392505050565b6000620009338262000872565b915062000941828562000750565b6014820191506200095382846200076b565b602082019150620009648262000830565b91508190509392505050565b600060208201905081810360008301526200098b8162000786565b9050919050565b60006020820190508181036000830152620009ad81620007ee565b9050919050565b60006020820190508181036000830152620009cf81620008b4565b9050919050565b600082825260208201905092915050565b600081905092915050565b6000620009ff8262000a2a565b9050919050565b6000819050919050565b60006dffffffffffffffffffffffffffff82169050919050565b600073ffffffffffffffffffffffffffffffffffffffff82169050919050565b6000819050919050565b600063ffffffff82169050919050565b600062000a718262000a82565b9050919050565b6000819050919050565b600062000a8f8262000a96565b9050919050565b60008160601b9050919050565b62000aae81620009f2565b811462000aba57600080fd5b50565b62000ac88162000a10565b811462000ad457600080fd5b50565b62000ae28162000a4a565b811462000aee57600080fd5b50565b62000afc8162000a54565b811462000b0857600080fd5b50565b60805160601c60a05160601c60c05160601c61164662000b526000396000818161033901526106f80152600081816101cf0152610235015260006104bf01526116466000f3fe608060405234801561001057600080fd5b506004361061009e5760003560e01c8063a2e6204511610066578063a2e620451461014b578063a6bb453914610155578063b4d1d79514610173578063c5700a0214610191578063d21220a7146101af5761009e565b80630dfe1681146100a35780635909c0d5146100c15780635a3d5493146100df5780635e6aaf2c146100fd578063636cfa0c1461011b575b600080fd5b6100ab6101cd565b6040516100b8919061116b565b60405180910390f35b6100c96101f1565b6040516100d69190611286565b60405180910390f35b6100e76101f7565b6040516100f49190611286565b60405180910390f35b6101056101fd565b604051610112919061126b565b60405180910390f35b61013560048036038101906101309190610d9a565b610231565b6040516101429190611286565b60405180910390f35b6101536104b5565b005b61015d6106a7565b60405161016a919061126b565b60405180910390f35b61017b6106db565b6040516101889190611286565b60405180910390f35b6101996106e0565b6040516101a691906112a1565b60405180910390f35b6101b76106f6565b6040516101c4919061116b565b60405180910390f35b7f000000000000000000000000000000000000000000000000000000000000000081565b60005481565b60015481565b60048060000160009054906101000a90047bffffffffffffffffffffffffffffffffffffffffffffffffffffffff16905081565b60007f000000000000000000000000000000000000000000000000000000000000000073ffffffffffffffffffffffffffffffffffffffff168473ffffffffffffffffffffffffffffffffffffffff1614156103375761031c6103178360036040518060200160405290816000820160009054906101000a90047bffffffffffffffffffffffffffffffffffffffffffffffffffffffff167bffffffffffffffffffffffffffffffffffffffffffffffffffffffff167bffffffffffffffffffffffffffffffffffffffffffffffffffffffff168152505061078c90919063ffffffff16565b610857565b71ffffffffffffffffffffffffffffffffffff169050610471565b7f000000000000000000000000000000000000000000000000000000000000000073ffffffffffffffffffffffffffffffffffffffff168473ffffffffffffffffffffffffffffffffffffffff16146103c5576040517f08c379a00000000000000000000000000000000000000000000000000000000081526004016103bc906111eb565b60405180910390fd5b61045a6104558360046040518060200160405290816000820160009054906101000a90047bffffffffffffffffffffffffffffffffffffffffffffffffffffffff167bffffffffffffffffffffffffffffffffffffffffffffffffffffffff167bffffffffffffffffffffffffffffffffffffffffffffffffffffffff168152505061078c90919063ffffffff16565b610857565b71ffffffffffffffffffffffffffffffffffff1690505b7f33618b544b19685daab1df7cfadd7420c958b280dc57254ad32f21c3bae45927848484846040516104a69493929190611186565b60405180910390a19392505050565b60008060006104e37f000000000000000000000000000000000000000000000000000000000000000061086c565b9250925092506000600260009054906101000a900463ffffffff1682610509919061141e565b9050603c8163ffffffff16101561052357505050506106a5565b60405180602001604052808263ffffffff166000548761054391906113ea565b61054d919061135f565b7bffffffffffffffffffffffffffffffffffffffffffffffffffffffff16815250600360008201518160000160006101000a8154817bffffffffffffffffffffffffffffffffffffffffffffffffffffffff02191690837bffffffffffffffffffffffffffffffffffffffffffffffffffffffff16021790555090505060405180602001604052808263ffffffff16600154866105ea91906113ea565b6105f4919061135f565b7bffffffffffffffffffffffffffffffffffffffffffffffffffffffff16815250600460008201518160000160006101000a8154817bffffffffffffffffffffffffffffffffffffffffffffffffffffffff02191690837bffffffffffffffffffffffffffffffffffffffffffffffffffffffff160217905550905050836000819055508260018190555081600260006101000a81548163ffffffff021916908363ffffffff160217905550505050505b565b60038060000160009054906101000a90047bffffffffffffffffffffffffffffffffffffffffffffffffffffffff16905081565b603c81565b600260009054906101000a900463ffffffff1681565b7f000000000000000000000000000000000000000000000000000000000000000081565b60008060006107298585610ac7565b915091508582826040516020016107419291906110fd565b60405160208183030381529060405280519060200120604051602001610768929190611129565b6040516020818303038152906040528051906020012060001c925050509392505050565b610794610ced565b600080831480610800575083600001517bffffffffffffffffffffffffffffffffffffffffffffffffffffffff16838486600001517bffffffffffffffffffffffffffffffffffffffffffffffffffffffff166107f19190611390565b9250826107fe919061135f565b145b61083f576040517f08c379a00000000000000000000000000000000000000000000000000000000081526004016108369061120b565b60405180910390fd5b60405180602001604052808281525091505092915050565b6000607060ff168260000151901c9050919050565b6000806000610879610bf5565b90508373ffffffffffffffffffffffffffffffffffffffff16635909c0d56040518163ffffffff1660e01b815260040160206040518083038186803b1580156108c157600080fd5b505afa1580156108d5573d6000803e3d6000fd5b505050506040513d601f19601f820116820180604052508101906108f99190610e38565b92508373ffffffffffffffffffffffffffffffffffffffff16635a3d54936040518163ffffffff1660e01b815260040160206040518083038186803b15801561094157600080fd5b505afa158015610955573d6000803e3d6000fd5b505050506040513d601f19601f820116820180604052508101906109799190610e38565b915060008060008673ffffffffffffffffffffffffffffffffffffffff16630902f1ac6040518163ffffffff1660e01b815260040160606040518083038186803b1580156109c657600080fd5b505afa1580156109da573d6000803e3d6000fd5b505050506040513d601f19601f820116820180604052508101906109fe9190610de9565b9250925092508363ffffffff168163ffffffff1614610abd5760008185610a25919061141e565b90508063ffffffff16610a388486610c0d565b600001517bffffffffffffffffffffffffffffffffffffffffffffffffffffffff16610a649190611390565b87610a6f91906112d8565b96508063ffffffff16610a828585610c0d565b600001517bffffffffffffffffffffffffffffffffffffffffffffffffffffffff16610aae9190611390565b86610ab991906112d8565b9550505b5050509193909250565b6000808273ffffffffffffffffffffffffffffffffffffffff168473ffffffffffffffffffffffffffffffffffffffff161415610b39576040517f08c379a0000000000000000000000000000000000000000000000000000000008152600401610b30906111cb565b60405180910390fd5b8273ffffffffffffffffffffffffffffffffffffffff168473ffffffffffffffffffffffffffffffffffffffff1610610b73578284610b76565b83835b8092508193505050600073ffffffffffffffffffffffffffffffffffffffff168273ffffffffffffffffffffffffffffffffffffffff161415610bee576040517f08c379a0000000000000000000000000000000000000000000000000000000008152600401610be59061122b565b60405180910390fd5b9250929050565b600064010000000042610c089190611518565b905090565b610c15610d00565b6000826dffffffffffffffffffffffffffff1611610c68576040517f08c379a0000000000000000000000000000000000000000000000000000000008152600401610c5f9061124b565b60405180910390fd5b6040518060200160405280836dffffffffffffffffffffffffffff16607060ff16866dffffffffffffffffffffffffffff167bffffffffffffffffffffffffffffffffffffffffffffffffffffffff16901b610cc4919061132e565b7bffffffffffffffffffffffffffffffffffffffffffffffffffffffff16815250905092915050565b6040518060200160405280600081525090565b604051806020016040528060007bffffffffffffffffffffffffffffffffffffffffffffffffffffffff1681525090565b600081359050610d40816115b4565b92915050565b600081519050610d55816115cb565b92915050565b600081359050610d6a816115e2565b92915050565b600081519050610d7f816115e2565b92915050565b600081519050610d94816115f9565b92915050565b600080600060608486031215610daf57600080fd5b6000610dbd86828701610d31565b9350506020610dce86828701610d31565b9250506040610ddf86828701610d5b565b9150509250925092565b600080600060608486031215610dfe57600080fd5b6000610e0c86828701610d46565b9350506020610e1d86828701610d46565b9250506040610e2e86828701610d85565b9150509250925092565b600060208284031215610e4a57600080fd5b6000610e5884828501610d70565b91505092915050565b610e6a81611452565b82525050565b610e81610e7c82611452565b6114ea565b82525050565b610e98610e9382611464565b6114fc565b82525050565b6000610eab6025836112bc565b91507f556e697377617056324c6962726172793a204944454e544943414c5f4144445260008301527f45535345530000000000000000000000000000000000000000000000000000006020830152604082019050919050565b6000610f116020836112cd565b91507f96e8ac4277198ff8b6f785478aa9a39f403cb768dd02cbee326c3e7da348845f6000830152602082019050919050565b6000610f516022836112bc565b91507f4578616d706c654f7261636c6553696d706c653a20494e56414c49445f544f4b60008301527f454e0000000000000000000000000000000000000000000000000000000000006020830152604082019050919050565b6000610fb76001836112cd565b91507fff000000000000000000000000000000000000000000000000000000000000006000830152600182019050919050565b6000610ff76023836112bc565b91507f4669786564506f696e743a204d554c5449504c49434154494f4e5f4f5645524660008301527f4c4f5700000000000000000000000000000000000000000000000000000000006020830152604082019050919050565b600061105d601e836112bc565b91507f556e697377617056324c6962726172793a205a45524f5f4144445245535300006000830152602082019050919050565b600061109d6017836112bc565b91507f4669786564506f696e743a204449565f42595f5a45524f0000000000000000006000830152602082019050919050565b6110d9816114a8565b82525050565b6110e8816114d0565b82525050565b6110f7816114da565b82525050565b60006111098285610e70565b6014820191506111198284610e70565b6014820191508190509392505050565b600061113482610faa565b91506111408285610e70565b6014820191506111508284610e87565b60208201915061115f82610f04565b91508190509392505050565b60006020820190506111806000830184610e61565b92915050565b600060808201905061119b6000830187610e61565b6111a86020830186610e61565b6111b560408301856110df565b6111c260608301846110df565b95945050505050565b600060208201905081810360008301526111e481610e9e565b9050919050565b6000602082019050818103600083015261120481610f44565b9050919050565b6000602082019050818103600083015261122481610fea565b9050919050565b6000602082019050818103600083015261124481611050565b9050919050565b6000602082019050818103600083015261126481611090565b9050919050565b600060208201905061128060008301846110d0565b92915050565b600060208201905061129b60008301846110df565b92915050565b60006020820190506112b660008301846110ee565b92915050565b600082825260208201905092915050565b600081905092915050565b60006112e3826114d0565b91506112ee836114d0565b9250827fffffffffffffffffffffffffffffffffffffffffffffffffffffffffffffffff0382111561132357611322611549565b5b828201905092915050565b6000611339826114a8565b9150611344836114a8565b92508261135457611353611578565b5b828204905092915050565b600061136a826114d0565b9150611375836114d0565b92508261138557611384611578565b5b828204905092915050565b600061139b826114d0565b91506113a6836114d0565b9250817fffffffffffffffffffffffffffffffffffffffffffffffffffffffffffffffff04831182151516156113df576113de611549565b5b828202905092915050565b60006113f5826114d0565b9150611400836114d0565b92508282101561141357611412611549565b5b828203905092915050565b6000611429826114da565b9150611434836114da565b92508282101561144757611446611549565b5b828203905092915050565b600061145d82611488565b9050919050565b6000819050919050565b60006dffffffffffffffffffffffffffff82169050919050565b600073ffffffffffffffffffffffffffffffffffffffff82169050919050565b60007bffffffffffffffffffffffffffffffffffffffffffffffffffffffff82169050919050565b6000819050919050565b600063ffffffff82169050919050565b60006114f582611506565b9050919050565b6000819050919050565b6000611511826115a7565b9050919050565b6000611523826114d0565b915061152e836114d0565b92508261153e5761153d611578565b5b828206905092915050565b7f4e487b7100000000000000000000000000000000000000000000000000000000600052601160045260246000fd5b7f4e487b7100000000000000000000000000000000000000000000000000000000600052601260045260246000fd5b60008160601b9050919050565b6115bd81611452565b81146115c857600080fd5b50565b6115d48161146e565b81146115df57600080fd5b50565b6115eb816114d0565b81146115f657600080fd5b50565b611602816114da565b811461160d57600080fd5b5056fea2646970667358221220817ba45a4c35b9304533d9bab2d74ea68afd781e249ad9b1f2b686ed7437260064736f6c63430008000033",
          "opcodes": "PUSH1 0xE0 PUSH1 0x40 MSTORE CALLVALUE DUP1 ISZERO PUSH3 0x11 JUMPI PUSH1 0x0 DUP1 REVERT JUMPDEST POP PUSH1 0x40 MLOAD PUSH3 0x2198 CODESIZE SUB DUP1 PUSH3 0x2198 DUP4 CODECOPY DUP2 DUP2 ADD PUSH1 0x40 MSTORE DUP2 ADD SWAP1 PUSH3 0x37 SWAP2 SWAP1 PUSH3 0x678 JUMP JUMPDEST PUSH1 0x0 PUSH3 0x51 DUP5 DUP5 DUP5 PUSH3 0x43C PUSH1 0x20 SHL PUSH3 0x71A OR PUSH1 0x20 SHR JUMP JUMPDEST SWAP1 POP DUP1 PUSH20 0xFFFFFFFFFFFFFFFFFFFFFFFFFFFFFFFFFFFFFFFF AND PUSH1 0x80 DUP2 PUSH20 0xFFFFFFFFFFFFFFFFFFFFFFFFFFFFFFFFFFFFFFFF AND PUSH1 0x60 SHL DUP2 MSTORE POP POP DUP1 PUSH20 0xFFFFFFFFFFFFFFFFFFFFFFFFFFFFFFFFFFFFFFFF AND PUSH4 0xDFE1681 PUSH1 0x40 MLOAD DUP2 PUSH4 0xFFFFFFFF AND PUSH1 0xE0 SHL DUP2 MSTORE PUSH1 0x4 ADD PUSH1 0x20 PUSH1 0x40 MLOAD DUP1 DUP4 SUB DUP2 DUP7 DUP1 EXTCODESIZE ISZERO DUP1 ISZERO PUSH3 0xD1 JUMPI PUSH1 0x0 DUP1 REVERT JUMPDEST POP GAS STATICCALL ISZERO DUP1 ISZERO PUSH3 0xE6 JUMPI RETURNDATASIZE PUSH1 0x0 DUP1 RETURNDATACOPY RETURNDATASIZE PUSH1 0x0 REVERT JUMPDEST POP POP POP POP PUSH1 0x40 MLOAD RETURNDATASIZE PUSH1 0x1F NOT PUSH1 0x1F DUP3 ADD AND DUP3 ADD DUP1 PUSH1 0x40 MSTORE POP DUP2 ADD SWAP1 PUSH3 0x10C SWAP2 SWAP1 PUSH3 0x64C JUMP JUMPDEST PUSH20 0xFFFFFFFFFFFFFFFFFFFFFFFFFFFFFFFFFFFFFFFF AND PUSH1 0xA0 DUP2 PUSH20 0xFFFFFFFFFFFFFFFFFFFFFFFFFFFFFFFFFFFFFFFF AND PUSH1 0x60 SHL DUP2 MSTORE POP POP DUP1 PUSH20 0xFFFFFFFFFFFFFFFFFFFFFFFFFFFFFFFFFFFFFFFF AND PUSH4 0xD21220A7 PUSH1 0x40 MLOAD DUP2 PUSH4 0xFFFFFFFF AND PUSH1 0xE0 SHL DUP2 MSTORE PUSH1 0x4 ADD PUSH1 0x20 PUSH1 0x40 MLOAD DUP1 DUP4 SUB DUP2 DUP7 DUP1 EXTCODESIZE ISZERO DUP1 ISZERO PUSH3 0x189 JUMPI PUSH1 0x0 DUP1 REVERT JUMPDEST POP GAS STATICCALL ISZERO DUP1 ISZERO PUSH3 0x19E JUMPI RETURNDATASIZE PUSH1 0x0 DUP1 RETURNDATACOPY RETURNDATASIZE PUSH1 0x0 REVERT JUMPDEST POP POP POP POP PUSH1 0x40 MLOAD RETURNDATASIZE PUSH1 0x1F NOT PUSH1 0x1F DUP3 ADD AND DUP3 ADD DUP1 PUSH1 0x40 MSTORE POP DUP2 ADD SWAP1 PUSH3 0x1C4 SWAP2 SWAP1 PUSH3 0x64C JUMP JUMPDEST PUSH20 0xFFFFFFFFFFFFFFFFFFFFFFFFFFFFFFFFFFFFFFFF AND PUSH1 0xC0 DUP2 PUSH20 0xFFFFFFFFFFFFFFFFFFFFFFFFFFFFFFFFFFFFFFFF AND PUSH1 0x60 SHL DUP2 MSTORE POP POP DUP1 PUSH20 0xFFFFFFFFFFFFFFFFFFFFFFFFFFFFFFFFFFFFFFFF AND PUSH4 0x5909C0D5 PUSH1 0x40 MLOAD DUP2 PUSH4 0xFFFFFFFF AND PUSH1 0xE0 SHL DUP2 MSTORE PUSH1 0x4 ADD PUSH1 0x20 PUSH1 0x40 MLOAD DUP1 DUP4 SUB DUP2 DUP7 DUP1 EXTCODESIZE ISZERO DUP1 ISZERO PUSH3 0x241 JUMPI PUSH1 0x0 DUP1 REVERT JUMPDEST POP GAS STATICCALL ISZERO DUP1 ISZERO PUSH3 0x256 JUMPI RETURNDATASIZE PUSH1 0x0 DUP1 RETURNDATACOPY RETURNDATASIZE PUSH1 0x0 REVERT JUMPDEST POP POP POP POP PUSH1 0x40 MLOAD RETURNDATASIZE PUSH1 0x1F NOT PUSH1 0x1F DUP3 ADD AND DUP3 ADD DUP1 PUSH1 0x40 MSTORE POP DUP2 ADD SWAP1 PUSH3 0x27C SWAP2 SWAP1 PUSH3 0x724 JUMP JUMPDEST PUSH1 0x0 DUP2 SWAP1 SSTORE POP DUP1 PUSH20 0xFFFFFFFFFFFFFFFFFFFFFFFFFFFFFFFFFFFFFFFF AND PUSH4 0x5A3D5493 PUSH1 0x40 MLOAD DUP2 PUSH4 0xFFFFFFFF AND PUSH1 0xE0 SHL DUP2 MSTORE PUSH1 0x4 ADD PUSH1 0x20 PUSH1 0x40 MLOAD DUP1 DUP4 SUB DUP2 DUP7 DUP1 EXTCODESIZE ISZERO DUP1 ISZERO PUSH3 0x2C9 JUMPI PUSH1 0x0 DUP1 REVERT JUMPDEST POP GAS STATICCALL ISZERO DUP1 ISZERO PUSH3 0x2DE JUMPI RETURNDATASIZE PUSH1 0x0 DUP1 RETURNDATACOPY RETURNDATASIZE PUSH1 0x0 REVERT JUMPDEST POP POP POP POP PUSH1 0x40 MLOAD RETURNDATASIZE PUSH1 0x1F NOT PUSH1 0x1F DUP3 ADD AND DUP3 ADD DUP1 PUSH1 0x40 MSTORE POP DUP2 ADD SWAP1 PUSH3 0x304 SWAP2 SWAP1 PUSH3 0x724 JUMP JUMPDEST PUSH1 0x1 DUP2 SWAP1 SSTORE POP PUSH1 0x0 DUP1 DUP3 PUSH20 0xFFFFFFFFFFFFFFFFFFFFFFFFFFFFFFFFFFFFFFFF AND PUSH4 0x902F1AC PUSH1 0x40 MLOAD DUP2 PUSH4 0xFFFFFFFF AND PUSH1 0xE0 SHL DUP2 MSTORE PUSH1 0x4 ADD PUSH1 0x60 PUSH1 0x40 MLOAD DUP1 DUP4 SUB DUP2 DUP7 DUP1 EXTCODESIZE ISZERO DUP1 ISZERO PUSH3 0x354 JUMPI PUSH1 0x0 DUP1 REVERT JUMPDEST POP GAS STATICCALL ISZERO DUP1 ISZERO PUSH3 0x369 JUMPI RETURNDATASIZE PUSH1 0x0 DUP1 RETURNDATACOPY RETURNDATASIZE PUSH1 0x0 REVERT JUMPDEST POP POP POP POP PUSH1 0x40 MLOAD RETURNDATASIZE PUSH1 0x1F NOT PUSH1 0x1F DUP3 ADD AND DUP3 ADD DUP1 PUSH1 0x40 MSTORE POP DUP2 ADD SWAP1 PUSH3 0x38F SWAP2 SWAP1 PUSH3 0x6CE JUMP JUMPDEST PUSH1 0x2 PUSH1 0x0 DUP3 SWAP2 SWAP1 PUSH2 0x100 EXP DUP2 SLOAD DUP2 PUSH4 0xFFFFFFFF MUL NOT AND SWAP1 DUP4 PUSH4 0xFFFFFFFF AND MUL OR SWAP1 SSTORE POP DUP2 SWAP4 POP DUP3 SWAP5 POP POP POP POP PUSH1 0x0 DUP3 PUSH14 0xFFFFFFFFFFFFFFFFFFFFFFFFFFFF AND EQ ISZERO DUP1 ISZERO PUSH3 0x3EE JUMPI POP PUSH1 0x0 DUP2 PUSH14 0xFFFFFFFFFFFFFFFFFFFFFFFFFFFF AND EQ ISZERO JUMPDEST PUSH3 0x430 JUMPI PUSH1 0x40 MLOAD PUSH32 0x8C379A000000000000000000000000000000000000000000000000000000000 DUP2 MSTORE PUSH1 0x4 ADD PUSH3 0x427 SWAP1 PUSH3 0x992 JUMP JUMPDEST PUSH1 0x40 MLOAD DUP1 SWAP2 SUB SWAP1 REVERT JUMPDEST POP POP POP POP POP POP PUSH3 0xB0B JUMP JUMPDEST PUSH1 0x0 DUP1 PUSH1 0x0 PUSH3 0x453 DUP6 DUP6 PUSH3 0x4BA PUSH1 0x20 SHL PUSH1 0x20 SHR JUMP JUMPDEST SWAP2 POP SWAP2 POP DUP6 DUP3 DUP3 PUSH1 0x40 MLOAD PUSH1 0x20 ADD PUSH3 0x46D SWAP3 SWAP2 SWAP1 PUSH3 0x8F6 JUMP JUMPDEST PUSH1 0x40 MLOAD PUSH1 0x20 DUP2 DUP4 SUB SUB DUP2 MSTORE SWAP1 PUSH1 0x40 MSTORE DUP1 MLOAD SWAP1 PUSH1 0x20 ADD KECCAK256 PUSH1 0x40 MLOAD PUSH1 0x20 ADD PUSH3 0x496 SWAP3 SWAP2 SWAP1 PUSH3 0x926 JUMP JUMPDEST PUSH1 0x40 MLOAD PUSH1 0x20 DUP2 DUP4 SUB SUB DUP2 MSTORE SWAP1 PUSH1 0x40 MSTORE DUP1 MLOAD SWAP1 PUSH1 0x20 ADD KECCAK256 PUSH1 0x0 SHR SWAP3 POP POP POP SWAP4 SWAP3 POP POP POP JUMP JUMPDEST PUSH1 0x0 DUP1 DUP3 PUSH20 0xFFFFFFFFFFFFFFFFFFFFFFFFFFFFFFFFFFFFFFFF AND DUP5 PUSH20 0xFFFFFFFFFFFFFFFFFFFFFFFFFFFFFFFFFFFFFFFF AND EQ ISZERO PUSH3 0x52F JUMPI PUSH1 0x40 MLOAD PUSH32 0x8C379A000000000000000000000000000000000000000000000000000000000 DUP2 MSTORE PUSH1 0x4 ADD PUSH3 0x526 SWAP1 PUSH3 0x970 JUMP JUMPDEST PUSH1 0x40 MLOAD DUP1 SWAP2 SUB SWAP1 REVERT JUMPDEST DUP3 PUSH20 0xFFFFFFFFFFFFFFFFFFFFFFFFFFFFFFFFFFFFFFFF AND DUP5 PUSH20 0xFFFFFFFFFFFFFFFFFFFFFFFFFFFFFFFFFFFFFFFF AND LT PUSH3 0x56B JUMPI DUP3 DUP5 PUSH3 0x56E JUMP JUMPDEST DUP4 DUP4 JUMPDEST DUP1 SWAP3 POP DUP2 SWAP4 POP POP POP PUSH1 0x0 PUSH20 0xFFFFFFFFFFFFFFFFFFFFFFFFFFFFFFFFFFFFFFFF AND DUP3 PUSH20 0xFFFFFFFFFFFFFFFFFFFFFFFFFFFFFFFFFFFFFFFF AND EQ ISZERO PUSH3 0x5E9 JUMPI PUSH1 0x40 MLOAD PUSH32 0x8C379A000000000000000000000000000000000000000000000000000000000 DUP2 MSTORE PUSH1 0x4 ADD PUSH3 0x5E0 SWAP1 PUSH3 0x9B4 JUMP JUMPDEST PUSH1 0x40 MLOAD DUP1 SWAP2 SUB SWAP1 REVERT JUMPDEST SWAP3 POP SWAP3 SWAP1 POP JUMP JUMPDEST PUSH1 0x0 DUP2 MLOAD SWAP1 POP PUSH3 0x601 DUP2 PUSH3 0xAA3 JUMP JUMPDEST SWAP3 SWAP2 POP POP JUMP JUMPDEST PUSH1 0x0 DUP2 MLOAD SWAP1 POP PUSH3 0x618 DUP2 PUSH3 0xABD JUMP JUMPDEST SWAP3 SWAP2 POP POP JUMP JUMPDEST PUSH1 0x0 DUP2 MLOAD SWAP1 POP PUSH3 0x62F DUP2 PUSH3 0xAD7 JUMP JUMPDEST SWAP3 SWAP2 POP POP JUMP JUMPDEST PUSH1 0x0 DUP2 MLOAD SWAP1 POP PUSH3 0x646 DUP2 PUSH3 0xAF1 JUMP JUMPDEST SWAP3 SWAP2 POP POP JUMP JUMPDEST PUSH1 0x0 PUSH1 0x20 DUP3 DUP5 SUB SLT ISZERO PUSH3 0x65F JUMPI PUSH1 0x0 DUP1 REVERT JUMPDEST PUSH1 0x0 PUSH3 0x66F DUP5 DUP3 DUP6 ADD PUSH3 0x5F0 JUMP JUMPDEST SWAP2 POP POP SWAP3 SWAP2 POP POP JUMP JUMPDEST PUSH1 0x0 DUP1 PUSH1 0x0 PUSH1 0x60 DUP5 DUP7 SUB SLT ISZERO PUSH3 0x68E JUMPI PUSH1 0x0 DUP1 REVERT JUMPDEST PUSH1 0x0 PUSH3 0x69E DUP7 DUP3 DUP8 ADD PUSH3 0x5F0 JUMP JUMPDEST SWAP4 POP POP PUSH1 0x20 PUSH3 0x6B1 DUP7 DUP3 DUP8 ADD PUSH3 0x5F0 JUMP JUMPDEST SWAP3 POP POP PUSH1 0x40 PUSH3 0x6C4 DUP7 DUP3 DUP8 ADD PUSH3 0x5F0 JUMP JUMPDEST SWAP2 POP POP SWAP3 POP SWAP3 POP SWAP3 JUMP JUMPDEST PUSH1 0x0 DUP1 PUSH1 0x0 PUSH1 0x60 DUP5 DUP7 SUB SLT ISZERO PUSH3 0x6E4 JUMPI PUSH1 0x0 DUP1 REVERT JUMPDEST PUSH1 0x0 PUSH3 0x6F4 DUP7 DUP3 DUP8 ADD PUSH3 0x607 JUMP JUMPDEST SWAP4 POP POP PUSH1 0x20 PUSH3 0x707 DUP7 DUP3 DUP8 ADD PUSH3 0x607 JUMP JUMPDEST SWAP3 POP POP PUSH1 0x40 PUSH3 0x71A DUP7 DUP3 DUP8 ADD PUSH3 0x635 JUMP JUMPDEST SWAP2 POP POP SWAP3 POP SWAP3 POP SWAP3 JUMP JUMPDEST PUSH1 0x0 PUSH1 0x20 DUP3 DUP5 SUB SLT ISZERO PUSH3 0x737 JUMPI PUSH1 0x0 DUP1 REVERT JUMPDEST PUSH1 0x0 PUSH3 0x747 DUP5 DUP3 DUP6 ADD PUSH3 0x61E JUMP JUMPDEST SWAP2 POP POP SWAP3 SWAP2 POP POP JUMP JUMPDEST PUSH3 0x765 PUSH3 0x75F DUP3 PUSH3 0x9F2 JUMP JUMPDEST PUSH3 0xA64 JUMP JUMPDEST DUP3 MSTORE POP POP JUMP JUMPDEST PUSH3 0x780 PUSH3 0x77A DUP3 PUSH3 0xA06 JUMP JUMPDEST PUSH3 0xA78 JUMP JUMPDEST DUP3 MSTORE POP POP JUMP JUMPDEST PUSH1 0x0 PUSH3 0x795 PUSH1 0x25 DUP4 PUSH3 0x9D6 JUMP JUMPDEST SWAP2 POP PUSH32 0x556E697377617056324C6962726172793A204944454E544943414C5F41444452 PUSH1 0x0 DUP4 ADD MSTORE PUSH32 0x4553534553000000000000000000000000000000000000000000000000000000 PUSH1 0x20 DUP4 ADD MSTORE PUSH1 0x40 DUP3 ADD SWAP1 POP SWAP2 SWAP1 POP JUMP JUMPDEST PUSH1 0x0 PUSH3 0x7FD PUSH1 0x20 DUP4 PUSH3 0x9D6 JUMP JUMPDEST SWAP2 POP PUSH32 0x4578616D706C654F7261636C6553696D706C653A204E4F5F5245534552564553 PUSH1 0x0 DUP4 ADD MSTORE PUSH1 0x20 DUP3 ADD SWAP1 POP SWAP2 SWAP1 POP JUMP JUMPDEST PUSH1 0x0 PUSH3 0x83F PUSH1 0x20 DUP4 PUSH3 0x9E7 JUMP JUMPDEST SWAP2 POP PUSH32 0x96E8AC4277198FF8B6F785478AA9A39F403CB768DD02CBEE326C3E7DA348845F PUSH1 0x0 DUP4 ADD MSTORE PUSH1 0x20 DUP3 ADD SWAP1 POP SWAP2 SWAP1 POP JUMP JUMPDEST PUSH1 0x0 PUSH3 0x881 PUSH1 0x1 DUP4 PUSH3 0x9E7 JUMP JUMPDEST SWAP2 POP PUSH32 0xFF00000000000000000000000000000000000000000000000000000000000000 PUSH1 0x0 DUP4 ADD MSTORE PUSH1 0x1 DUP3 ADD SWAP1 POP SWAP2 SWAP1 POP JUMP JUMPDEST PUSH1 0x0 PUSH3 0x8C3 PUSH1 0x1E DUP4 PUSH3 0x9D6 JUMP JUMPDEST SWAP2 POP PUSH32 0x556E697377617056324C6962726172793A205A45524F5F414444524553530000 PUSH1 0x0 DUP4 ADD MSTORE PUSH1 0x20 DUP3 ADD SWAP1 POP SWAP2 SWAP1 POP JUMP JUMPDEST PUSH1 0x0 PUSH3 0x904 DUP3 DUP6 PUSH3 0x750 JUMP JUMPDEST PUSH1 0x14 DUP3 ADD SWAP2 POP PUSH3 0x916 DUP3 DUP5 PUSH3 0x750 JUMP JUMPDEST PUSH1 0x14 DUP3 ADD SWAP2 POP DUP2 SWAP1 POP SWAP4 SWAP3 POP POP POP JUMP JUMPDEST PUSH1 0x0 PUSH3 0x933 DUP3 PUSH3 0x872 JUMP JUMPDEST SWAP2 POP PUSH3 0x941 DUP3 DUP6 PUSH3 0x750 JUMP JUMPDEST PUSH1 0x14 DUP3 ADD SWAP2 POP PUSH3 0x953 DUP3 DUP5 PUSH3 0x76B JUMP JUMPDEST PUSH1 0x20 DUP3 ADD SWAP2 POP PUSH3 0x964 DUP3 PUSH3 0x830 JUMP JUMPDEST SWAP2 POP DUP2 SWAP1 POP SWAP4 SWAP3 POP POP POP JUMP JUMPDEST PUSH1 0x0 PUSH1 0x20 DUP3 ADD SWAP1 POP DUP2 DUP2 SUB PUSH1 0x0 DUP4 ADD MSTORE PUSH3 0x98B DUP2 PUSH3 0x786 JUMP JUMPDEST SWAP1 POP SWAP2 SWAP1 POP JUMP JUMPDEST PUSH1 0x0 PUSH1 0x20 DUP3 ADD SWAP1 POP DUP2 DUP2 SUB PUSH1 0x0 DUP4 ADD MSTORE PUSH3 0x9AD DUP2 PUSH3 0x7EE JUMP JUMPDEST SWAP1 POP SWAP2 SWAP1 POP JUMP JUMPDEST PUSH1 0x0 PUSH1 0x20 DUP3 ADD SWAP1 POP DUP2 DUP2 SUB PUSH1 0x0 DUP4 ADD MSTORE PUSH3 0x9CF DUP2 PUSH3 0x8B4 JUMP JUMPDEST SWAP1 POP SWAP2 SWAP1 POP JUMP JUMPDEST PUSH1 0x0 DUP3 DUP3 MSTORE PUSH1 0x20 DUP3 ADD SWAP1 POP SWAP3 SWAP2 POP POP JUMP JUMPDEST PUSH1 0x0 DUP2 SWAP1 POP SWAP3 SWAP2 POP POP JUMP JUMPDEST PUSH1 0x0 PUSH3 0x9FF DUP3 PUSH3 0xA2A JUMP JUMPDEST SWAP1 POP SWAP2 SWAP1 POP JUMP JUMPDEST PUSH1 0x0 DUP2 SWAP1 POP SWAP2 SWAP1 POP JUMP JUMPDEST PUSH1 0x0 PUSH14 0xFFFFFFFFFFFFFFFFFFFFFFFFFFFF DUP3 AND SWAP1 POP SWAP2 SWAP1 POP JUMP JUMPDEST PUSH1 0x0 PUSH20 0xFFFFFFFFFFFFFFFFFFFFFFFFFFFFFFFFFFFFFFFF DUP3 AND SWAP1 POP SWAP2 SWAP1 POP JUMP JUMPDEST PUSH1 0x0 DUP2 SWAP1 POP SWAP2 SWAP1 POP JUMP JUMPDEST PUSH1 0x0 PUSH4 0xFFFFFFFF DUP3 AND SWAP1 POP SWAP2 SWAP1 POP JUMP JUMPDEST PUSH1 0x0 PUSH3 0xA71 DUP3 PUSH3 0xA82 JUMP JUMPDEST SWAP1 POP SWAP2 SWAP1 POP JUMP JUMPDEST PUSH1 0x0 DUP2 SWAP1 POP SWAP2 SWAP1 POP JUMP JUMPDEST PUSH1 0x0 PUSH3 0xA8F DUP3 PUSH3 0xA96 JUMP JUMPDEST SWAP1 POP SWAP2 SWAP1 POP JUMP JUMPDEST PUSH1 0x0 DUP2 PUSH1 0x60 SHL SWAP1 POP SWAP2 SWAP1 POP JUMP JUMPDEST PUSH3 0xAAE DUP2 PUSH3 0x9F2 JUMP JUMPDEST DUP2 EQ PUSH3 0xABA JUMPI PUSH1 0x0 DUP1 REVERT JUMPDEST POP JUMP JUMPDEST PUSH3 0xAC8 DUP2 PUSH3 0xA10 JUMP JUMPDEST DUP2 EQ PUSH3 0xAD4 JUMPI PUSH1 0x0 DUP1 REVERT JUMPDEST POP JUMP JUMPDEST PUSH3 0xAE2 DUP2 PUSH3 0xA4A JUMP JUMPDEST DUP2 EQ PUSH3 0xAEE JUMPI PUSH1 0x0 DUP1 REVERT JUMPDEST POP JUMP JUMPDEST PUSH3 0xAFC DUP2 PUSH3 0xA54 JUMP JUMPDEST DUP2 EQ PUSH3 0xB08 JUMPI PUSH1 0x0 DUP1 REVERT JUMPDEST POP JUMP JUMPDEST PUSH1 0x80 MLOAD PUSH1 0x60 SHR PUSH1 0xA0 MLOAD PUSH1 0x60 SHR PUSH1 0xC0 MLOAD PUSH1 0x60 SHR PUSH2 0x1646 PUSH3 0xB52 PUSH1 0x0 CODECOPY PUSH1 0x0 DUP2 DUP2 PUSH2 0x339 ADD MSTORE PUSH2 0x6F8 ADD MSTORE PUSH1 0x0 DUP2 DUP2 PUSH2 0x1CF ADD MSTORE PUSH2 0x235 ADD MSTORE PUSH1 0x0 PUSH2 0x4BF ADD MSTORE PUSH2 0x1646 PUSH1 0x0 RETURN INVALID PUSH1 0x80 PUSH1 0x40 MSTORE CALLVALUE DUP1 ISZERO PUSH2 0x10 JUMPI PUSH1 0x0 DUP1 REVERT JUMPDEST POP PUSH1 0x4 CALLDATASIZE LT PUSH2 0x9E JUMPI PUSH1 0x0 CALLDATALOAD PUSH1 0xE0 SHR DUP1 PUSH4 0xA2E62045 GT PUSH2 0x66 JUMPI DUP1 PUSH4 0xA2E62045 EQ PUSH2 0x14B JUMPI DUP1 PUSH4 0xA6BB4539 EQ PUSH2 0x155 JUMPI DUP1 PUSH4 0xB4D1D795 EQ PUSH2 0x173 JUMPI DUP1 PUSH4 0xC5700A02 EQ PUSH2 0x191 JUMPI DUP1 PUSH4 0xD21220A7 EQ PUSH2 0x1AF JUMPI PUSH2 0x9E JUMP JUMPDEST DUP1 PUSH4 0xDFE1681 EQ PUSH2 0xA3 JUMPI DUP1 PUSH4 0x5909C0D5 EQ PUSH2 0xC1 JUMPI DUP1 PUSH4 0x5A3D5493 EQ PUSH2 0xDF JUMPI DUP1 PUSH4 0x5E6AAF2C EQ PUSH2 0xFD JUMPI DUP1 PUSH4 0x636CFA0C EQ PUSH2 0x11B JUMPI JUMPDEST PUSH1 0x0 DUP1 REVERT JUMPDEST PUSH2 0xAB PUSH2 0x1CD JUMP JUMPDEST PUSH1 0x40 MLOAD PUSH2 0xB8 SWAP2 SWAP1 PUSH2 0x116B JUMP JUMPDEST PUSH1 0x40 MLOAD DUP1 SWAP2 SUB SWAP1 RETURN JUMPDEST PUSH2 0xC9 PUSH2 0x1F1 JUMP JUMPDEST PUSH1 0x40 MLOAD PUSH2 0xD6 SWAP2 SWAP1 PUSH2 0x1286 JUMP JUMPDEST PUSH1 0x40 MLOAD DUP1 SWAP2 SUB SWAP1 RETURN JUMPDEST PUSH2 0xE7 PUSH2 0x1F7 JUMP JUMPDEST PUSH1 0x40 MLOAD PUSH2 0xF4 SWAP2 SWAP1 PUSH2 0x1286 JUMP JUMPDEST PUSH1 0x40 MLOAD DUP1 SWAP2 SUB SWAP1 RETURN JUMPDEST PUSH2 0x105 PUSH2 0x1FD JUMP JUMPDEST PUSH1 0x40 MLOAD PUSH2 0x112 SWAP2 SWAP1 PUSH2 0x126B JUMP JUMPDEST PUSH1 0x40 MLOAD DUP1 SWAP2 SUB SWAP1 RETURN JUMPDEST PUSH2 0x135 PUSH1 0x4 DUP1 CALLDATASIZE SUB DUP2 ADD SWAP1 PUSH2 0x130 SWAP2 SWAP1 PUSH2 0xD9A JUMP JUMPDEST PUSH2 0x231 JUMP JUMPDEST PUSH1 0x40 MLOAD PUSH2 0x142 SWAP2 SWAP1 PUSH2 0x1286 JUMP JUMPDEST PUSH1 0x40 MLOAD DUP1 SWAP2 SUB SWAP1 RETURN JUMPDEST PUSH2 0x153 PUSH2 0x4B5 JUMP JUMPDEST STOP JUMPDEST PUSH2 0x15D PUSH2 0x6A7 JUMP JUMPDEST PUSH1 0x40 MLOAD PUSH2 0x16A SWAP2 SWAP1 PUSH2 0x126B JUMP JUMPDEST PUSH1 0x40 MLOAD DUP1 SWAP2 SUB SWAP1 RETURN JUMPDEST PUSH2 0x17B PUSH2 0x6DB JUMP JUMPDEST PUSH1 0x40 MLOAD PUSH2 0x188 SWAP2 SWAP1 PUSH2 0x1286 JUMP JUMPDEST PUSH1 0x40 MLOAD DUP1 SWAP2 SUB SWAP1 RETURN JUMPDEST PUSH2 0x199 PUSH2 0x6E0 JUMP JUMPDEST PUSH1 0x40 MLOAD PUSH2 0x1A6 SWAP2 SWAP1 PUSH2 0x12A1 JUMP JUMPDEST PUSH1 0x40 MLOAD DUP1 SWAP2 SUB SWAP1 RETURN JUMPDEST PUSH2 0x1B7 PUSH2 0x6F6 JUMP JUMPDEST PUSH1 0x40 MLOAD PUSH2 0x1C4 SWAP2 SWAP1 PUSH2 0x116B JUMP JUMPDEST PUSH1 0x40 MLOAD DUP1 SWAP2 SUB SWAP1 RETURN JUMPDEST PUSH32 0x0 DUP2 JUMP JUMPDEST PUSH1 0x0 SLOAD DUP2 JUMP JUMPDEST PUSH1 0x1 SLOAD DUP2 JUMP JUMPDEST PUSH1 0x4 DUP1 PUSH1 0x0 ADD PUSH1 0x0 SWAP1 SLOAD SWAP1 PUSH2 0x100 EXP SWAP1 DIV PUSH28 0xFFFFFFFFFFFFFFFFFFFFFFFFFFFFFFFFFFFFFFFFFFFFFFFFFFFFFFFF AND SWAP1 POP DUP2 JUMP JUMPDEST PUSH1 0x0 PUSH32 0x0 PUSH20 0xFFFFFFFFFFFFFFFFFFFFFFFFFFFFFFFFFFFFFFFF AND DUP5 PUSH20 0xFFFFFFFFFFFFFFFFFFFFFFFFFFFFFFFFFFFFFFFF AND EQ ISZERO PUSH2 0x337 JUMPI PUSH2 0x31C PUSH2 0x317 DUP4 PUSH1 0x3 PUSH1 0x40 MLOAD DUP1 PUSH1 0x20 ADD PUSH1 0x40 MSTORE SWAP1 DUP2 PUSH1 0x0 DUP3 ADD PUSH1 0x0 SWAP1 SLOAD SWAP1 PUSH2 0x100 EXP SWAP1 DIV PUSH28 0xFFFFFFFFFFFFFFFFFFFFFFFFFFFFFFFFFFFFFFFFFFFFFFFFFFFFFFFF AND PUSH28 0xFFFFFFFFFFFFFFFFFFFFFFFFFFFFFFFFFFFFFFFFFFFFFFFFFFFFFFFF AND PUSH28 0xFFFFFFFFFFFFFFFFFFFFFFFFFFFFFFFFFFFFFFFFFFFFFFFFFFFFFFFF AND DUP2 MSTORE POP POP PUSH2 0x78C SWAP1 SWAP2 SWAP1 PUSH4 0xFFFFFFFF AND JUMP JUMPDEST PUSH2 0x857 JUMP JUMPDEST PUSH18 0xFFFFFFFFFFFFFFFFFFFFFFFFFFFFFFFFFFFF AND SWAP1 POP PUSH2 0x471 JUMP JUMPDEST PUSH32 0x0 PUSH20 0xFFFFFFFFFFFFFFFFFFFFFFFFFFFFFFFFFFFFFFFF AND DUP5 PUSH20 0xFFFFFFFFFFFFFFFFFFFFFFFFFFFFFFFFFFFFFFFF AND EQ PUSH2 0x3C5 JUMPI PUSH1 0x40 MLOAD PUSH32 0x8C379A000000000000000000000000000000000000000000000000000000000 DUP2 MSTORE PUSH1 0x4 ADD PUSH2 0x3BC SWAP1 PUSH2 0x11EB JUMP JUMPDEST PUSH1 0x40 MLOAD DUP1 SWAP2 SUB SWAP1 REVERT JUMPDEST PUSH2 0x45A PUSH2 0x455 DUP4 PUSH1 0x4 PUSH1 0x40 MLOAD DUP1 PUSH1 0x20 ADD PUSH1 0x40 MSTORE SWAP1 DUP2 PUSH1 0x0 DUP3 ADD PUSH1 0x0 SWAP1 SLOAD SWAP1 PUSH2 0x100 EXP SWAP1 DIV PUSH28 0xFFFFFFFFFFFFFFFFFFFFFFFFFFFFFFFFFFFFFFFFFFFFFFFFFFFFFFFF AND PUSH28 0xFFFFFFFFFFFFFFFFFFFFFFFFFFFFFFFFFFFFFFFFFFFFFFFFFFFFFFFF AND PUSH28 0xFFFFFFFFFFFFFFFFFFFFFFFFFFFFFFFFFFFFFFFFFFFFFFFFFFFFFFFF AND DUP2 MSTORE POP POP PUSH2 0x78C SWAP1 SWAP2 SWAP1 PUSH4 0xFFFFFFFF AND JUMP JUMPDEST PUSH2 0x857 JUMP JUMPDEST PUSH18 0xFFFFFFFFFFFFFFFFFFFFFFFFFFFFFFFFFFFF AND SWAP1 POP JUMPDEST PUSH32 0x33618B544B19685DAAB1DF7CFADD7420C958B280DC57254AD32F21C3BAE45927 DUP5 DUP5 DUP5 DUP5 PUSH1 0x40 MLOAD PUSH2 0x4A6 SWAP5 SWAP4 SWAP3 SWAP2 SWAP1 PUSH2 0x1186 JUMP JUMPDEST PUSH1 0x40 MLOAD DUP1 SWAP2 SUB SWAP1 LOG1 SWAP4 SWAP3 POP POP POP JUMP JUMPDEST PUSH1 0x0 DUP1 PUSH1 0x0 PUSH2 0x4E3 PUSH32 0x0 PUSH2 0x86C JUMP JUMPDEST SWAP3 POP SWAP3 POP SWAP3 POP PUSH1 0x0 PUSH1 0x2 PUSH1 0x0 SWAP1 SLOAD SWAP1 PUSH2 0x100 EXP SWAP1 DIV PUSH4 0xFFFFFFFF AND DUP3 PUSH2 0x509 SWAP2 SWAP1 PUSH2 0x141E JUMP JUMPDEST SWAP1 POP PUSH1 0x3C DUP2 PUSH4 0xFFFFFFFF AND LT ISZERO PUSH2 0x523 JUMPI POP POP POP POP PUSH2 0x6A5 JUMP JUMPDEST PUSH1 0x40 MLOAD DUP1 PUSH1 0x20 ADD PUSH1 0x40 MSTORE DUP1 DUP3 PUSH4 0xFFFFFFFF AND PUSH1 0x0 SLOAD DUP8 PUSH2 0x543 SWAP2 SWAP1 PUSH2 0x13EA JUMP JUMPDEST PUSH2 0x54D SWAP2 SWAP1 PUSH2 0x135F JUMP JUMPDEST PUSH28 0xFFFFFFFFFFFFFFFFFFFFFFFFFFFFFFFFFFFFFFFFFFFFFFFFFFFFFFFF AND DUP2 MSTORE POP PUSH1 0x3 PUSH1 0x0 DUP3 ADD MLOAD DUP2 PUSH1 0x0 ADD PUSH1 0x0 PUSH2 0x100 EXP DUP2 SLOAD DUP2 PUSH28 0xFFFFFFFFFFFFFFFFFFFFFFFFFFFFFFFFFFFFFFFFFFFFFFFFFFFFFFFF MUL NOT AND SWAP1 DUP4 PUSH28 0xFFFFFFFFFFFFFFFFFFFFFFFFFFFFFFFFFFFFFFFFFFFFFFFFFFFFFFFF AND MUL OR SWAP1 SSTORE POP SWAP1 POP POP PUSH1 0x40 MLOAD DUP1 PUSH1 0x20 ADD PUSH1 0x40 MSTORE DUP1 DUP3 PUSH4 0xFFFFFFFF AND PUSH1 0x1 SLOAD DUP7 PUSH2 0x5EA SWAP2 SWAP1 PUSH2 0x13EA JUMP JUMPDEST PUSH2 0x5F4 SWAP2 SWAP1 PUSH2 0x135F JUMP JUMPDEST PUSH28 0xFFFFFFFFFFFFFFFFFFFFFFFFFFFFFFFFFFFFFFFFFFFFFFFFFFFFFFFF AND DUP2 MSTORE POP PUSH1 0x4 PUSH1 0x0 DUP3 ADD MLOAD DUP2 PUSH1 0x0 ADD PUSH1 0x0 PUSH2 0x100 EXP DUP2 SLOAD DUP2 PUSH28 0xFFFFFFFFFFFFFFFFFFFFFFFFFFFFFFFFFFFFFFFFFFFFFFFFFFFFFFFF MUL NOT AND SWAP1 DUP4 PUSH28 0xFFFFFFFFFFFFFFFFFFFFFFFFFFFFFFFFFFFFFFFFFFFFFFFFFFFFFFFF AND MUL OR SWAP1 SSTORE POP SWAP1 POP POP DUP4 PUSH1 0x0 DUP2 SWAP1 SSTORE POP DUP3 PUSH1 0x1 DUP2 SWAP1 SSTORE POP DUP2 PUSH1 0x2 PUSH1 0x0 PUSH2 0x100 EXP DUP2 SLOAD DUP2 PUSH4 0xFFFFFFFF MUL NOT AND SWAP1 DUP4 PUSH4 0xFFFFFFFF AND MUL OR SWAP1 SSTORE POP POP POP POP POP JUMPDEST JUMP JUMPDEST PUSH1 0x3 DUP1 PUSH1 0x0 ADD PUSH1 0x0 SWAP1 SLOAD SWAP1 PUSH2 0x100 EXP SWAP1 DIV PUSH28 0xFFFFFFFFFFFFFFFFFFFFFFFFFFFFFFFFFFFFFFFFFFFFFFFFFFFFFFFF AND SWAP1 POP DUP2 JUMP JUMPDEST PUSH1 0x3C DUP2 JUMP JUMPDEST PUSH1 0x2 PUSH1 0x0 SWAP1 SLOAD SWAP1 PUSH2 0x100 EXP SWAP1 DIV PUSH4 0xFFFFFFFF AND DUP2 JUMP JUMPDEST PUSH32 0x0 DUP2 JUMP JUMPDEST PUSH1 0x0 DUP1 PUSH1 0x0 PUSH2 0x729 DUP6 DUP6 PUSH2 0xAC7 JUMP JUMPDEST SWAP2 POP SWAP2 POP DUP6 DUP3 DUP3 PUSH1 0x40 MLOAD PUSH1 0x20 ADD PUSH2 0x741 SWAP3 SWAP2 SWAP1 PUSH2 0x10FD JUMP JUMPDEST PUSH1 0x40 MLOAD PUSH1 0x20 DUP2 DUP4 SUB SUB DUP2 MSTORE SWAP1 PUSH1 0x40 MSTORE DUP1 MLOAD SWAP1 PUSH1 0x20 ADD KECCAK256 PUSH1 0x40 MLOAD PUSH1 0x20 ADD PUSH2 0x768 SWAP3 SWAP2 SWAP1 PUSH2 0x1129 JUMP JUMPDEST PUSH1 0x40 MLOAD PUSH1 0x20 DUP2 DUP4 SUB SUB DUP2 MSTORE SWAP1 PUSH1 0x40 MSTORE DUP1 MLOAD SWAP1 PUSH1 0x20 ADD KECCAK256 PUSH1 0x0 SHR SWAP3 POP POP POP SWAP4 SWAP3 POP POP POP JUMP JUMPDEST PUSH2 0x794 PUSH2 0xCED JUMP JUMPDEST PUSH1 0x0 DUP1 DUP4 EQ DUP1 PUSH2 0x800 JUMPI POP DUP4 PUSH1 0x0 ADD MLOAD PUSH28 0xFFFFFFFFFFFFFFFFFFFFFFFFFFFFFFFFFFFFFFFFFFFFFFFFFFFFFFFF AND DUP4 DUP5 DUP7 PUSH1 0x0 ADD MLOAD PUSH28 0xFFFFFFFFFFFFFFFFFFFFFFFFFFFFFFFFFFFFFFFFFFFFFFFFFFFFFFFF AND PUSH2 0x7F1 SWAP2 SWAP1 PUSH2 0x1390 JUMP JUMPDEST SWAP3 POP DUP3 PUSH2 0x7FE SWAP2 SWAP1 PUSH2 0x135F JUMP JUMPDEST EQ JUMPDEST PUSH2 0x83F JUMPI PUSH1 0x40 MLOAD PUSH32 0x8C379A000000000000000000000000000000000000000000000000000000000 DUP2 MSTORE PUSH1 0x4 ADD PUSH2 0x836 SWAP1 PUSH2 0x120B JUMP JUMPDEST PUSH1 0x40 MLOAD DUP1 SWAP2 SUB SWAP1 REVERT JUMPDEST PUSH1 0x40 MLOAD DUP1 PUSH1 0x20 ADD PUSH1 0x40 MSTORE DUP1 DUP3 DUP2 MSTORE POP SWAP2 POP POP SWAP3 SWAP2 POP POP JUMP JUMPDEST PUSH1 0x0 PUSH1 0x70 PUSH1 0xFF AND DUP3 PUSH1 0x0 ADD MLOAD SWAP1 SHR SWAP1 POP SWAP2 SWAP1 POP JUMP JUMPDEST PUSH1 0x0 DUP1 PUSH1 0x0 PUSH2 0x879 PUSH2 0xBF5 JUMP JUMPDEST SWAP1 POP DUP4 PUSH20 0xFFFFFFFFFFFFFFFFFFFFFFFFFFFFFFFFFFFFFFFF AND PUSH4 0x5909C0D5 PUSH1 0x40 MLOAD DUP2 PUSH4 0xFFFFFFFF AND PUSH1 0xE0 SHL DUP2 MSTORE PUSH1 0x4 ADD PUSH1 0x20 PUSH1 0x40 MLOAD DUP1 DUP4 SUB DUP2 DUP7 DUP1 EXTCODESIZE ISZERO DUP1 ISZERO PUSH2 0x8C1 JUMPI PUSH1 0x0 DUP1 REVERT JUMPDEST POP GAS STATICCALL ISZERO DUP1 ISZERO PUSH2 0x8D5 JUMPI RETURNDATASIZE PUSH1 0x0 DUP1 RETURNDATACOPY RETURNDATASIZE PUSH1 0x0 REVERT JUMPDEST POP POP POP POP PUSH1 0x40 MLOAD RETURNDATASIZE PUSH1 0x1F NOT PUSH1 0x1F DUP3 ADD AND DUP3 ADD DUP1 PUSH1 0x40 MSTORE POP DUP2 ADD SWAP1 PUSH2 0x8F9 SWAP2 SWAP1 PUSH2 0xE38 JUMP JUMPDEST SWAP3 POP DUP4 PUSH20 0xFFFFFFFFFFFFFFFFFFFFFFFFFFFFFFFFFFFFFFFF AND PUSH4 0x5A3D5493 PUSH1 0x40 MLOAD DUP2 PUSH4 0xFFFFFFFF AND PUSH1 0xE0 SHL DUP2 MSTORE PUSH1 0x4 ADD PUSH1 0x20 PUSH1 0x40 MLOAD DUP1 DUP4 SUB DUP2 DUP7 DUP1 EXTCODESIZE ISZERO DUP1 ISZERO PUSH2 0x941 JUMPI PUSH1 0x0 DUP1 REVERT JUMPDEST POP GAS STATICCALL ISZERO DUP1 ISZERO PUSH2 0x955 JUMPI RETURNDATASIZE PUSH1 0x0 DUP1 RETURNDATACOPY RETURNDATASIZE PUSH1 0x0 REVERT JUMPDEST POP POP POP POP PUSH1 0x40 MLOAD RETURNDATASIZE PUSH1 0x1F NOT PUSH1 0x1F DUP3 ADD AND DUP3 ADD DUP1 PUSH1 0x40 MSTORE POP DUP2 ADD SWAP1 PUSH2 0x979 SWAP2 SWAP1 PUSH2 0xE38 JUMP JUMPDEST SWAP2 POP PUSH1 0x0 DUP1 PUSH1 0x0 DUP7 PUSH20 0xFFFFFFFFFFFFFFFFFFFFFFFFFFFFFFFFFFFFFFFF AND PUSH4 0x902F1AC PUSH1 0x40 MLOAD DUP2 PUSH4 0xFFFFFFFF AND PUSH1 0xE0 SHL DUP2 MSTORE PUSH1 0x4 ADD PUSH1 0x60 PUSH1 0x40 MLOAD DUP1 DUP4 SUB DUP2 DUP7 DUP1 EXTCODESIZE ISZERO DUP1 ISZERO PUSH2 0x9C6 JUMPI PUSH1 0x0 DUP1 REVERT JUMPDEST POP GAS STATICCALL ISZERO DUP1 ISZERO PUSH2 0x9DA JUMPI RETURNDATASIZE PUSH1 0x0 DUP1 RETURNDATACOPY RETURNDATASIZE PUSH1 0x0 REVERT JUMPDEST POP POP POP POP PUSH1 0x40 MLOAD RETURNDATASIZE PUSH1 0x1F NOT PUSH1 0x1F DUP3 ADD AND DUP3 ADD DUP1 PUSH1 0x40 MSTORE POP DUP2 ADD SWAP1 PUSH2 0x9FE SWAP2 SWAP1 PUSH2 0xDE9 JUMP JUMPDEST SWAP3 POP SWAP3 POP SWAP3 POP DUP4 PUSH4 0xFFFFFFFF AND DUP2 PUSH4 0xFFFFFFFF AND EQ PUSH2 0xABD JUMPI PUSH1 0x0 DUP2 DUP6 PUSH2 0xA25 SWAP2 SWAP1 PUSH2 0x141E JUMP JUMPDEST SWAP1 POP DUP1 PUSH4 0xFFFFFFFF AND PUSH2 0xA38 DUP5 DUP7 PUSH2 0xC0D JUMP JUMPDEST PUSH1 0x0 ADD MLOAD PUSH28 0xFFFFFFFFFFFFFFFFFFFFFFFFFFFFFFFFFFFFFFFFFFFFFFFFFFFFFFFF AND PUSH2 0xA64 SWAP2 SWAP1 PUSH2 0x1390 JUMP JUMPDEST DUP8 PUSH2 0xA6F SWAP2 SWAP1 PUSH2 0x12D8 JUMP JUMPDEST SWAP7 POP DUP1 PUSH4 0xFFFFFFFF AND PUSH2 0xA82 DUP6 DUP6 PUSH2 0xC0D JUMP JUMPDEST PUSH1 0x0 ADD MLOAD PUSH28 0xFFFFFFFFFFFFFFFFFFFFFFFFFFFFFFFFFFFFFFFFFFFFFFFFFFFFFFFF AND PUSH2 0xAAE SWAP2 SWAP1 PUSH2 0x1390 JUMP JUMPDEST DUP7 PUSH2 0xAB9 SWAP2 SWAP1 PUSH2 0x12D8 JUMP JUMPDEST SWAP6 POP POP JUMPDEST POP POP POP SWAP2 SWAP4 SWAP1 SWAP3 POP JUMP JUMPDEST PUSH1 0x0 DUP1 DUP3 PUSH20 0xFFFFFFFFFFFFFFFFFFFFFFFFFFFFFFFFFFFFFFFF AND DUP5 PUSH20 0xFFFFFFFFFFFFFFFFFFFFFFFFFFFFFFFFFFFFFFFF AND EQ ISZERO PUSH2 0xB39 JUMPI PUSH1 0x40 MLOAD PUSH32 0x8C379A000000000000000000000000000000000000000000000000000000000 DUP2 MSTORE PUSH1 0x4 ADD PUSH2 0xB30 SWAP1 PUSH2 0x11CB JUMP JUMPDEST PUSH1 0x40 MLOAD DUP1 SWAP2 SUB SWAP1 REVERT JUMPDEST DUP3 PUSH20 0xFFFFFFFFFFFFFFFFFFFFFFFFFFFFFFFFFFFFFFFF AND DUP5 PUSH20 0xFFFFFFFFFFFFFFFFFFFFFFFFFFFFFFFFFFFFFFFF AND LT PUSH2 0xB73 JUMPI DUP3 DUP5 PUSH2 0xB76 JUMP JUMPDEST DUP4 DUP4 JUMPDEST DUP1 SWAP3 POP DUP2 SWAP4 POP POP POP PUSH1 0x0 PUSH20 0xFFFFFFFFFFFFFFFFFFFFFFFFFFFFFFFFFFFFFFFF AND DUP3 PUSH20 0xFFFFFFFFFFFFFFFFFFFFFFFFFFFFFFFFFFFFFFFF AND EQ ISZERO PUSH2 0xBEE JUMPI PUSH1 0x40 MLOAD PUSH32 0x8C379A000000000000000000000000000000000000000000000000000000000 DUP2 MSTORE PUSH1 0x4 ADD PUSH2 0xBE5 SWAP1 PUSH2 0x122B JUMP JUMPDEST PUSH1 0x40 MLOAD DUP1 SWAP2 SUB SWAP1 REVERT JUMPDEST SWAP3 POP SWAP3 SWAP1 POP JUMP JUMPDEST PUSH1 0x0 PUSH5 0x100000000 TIMESTAMP PUSH2 0xC08 SWAP2 SWAP1 PUSH2 0x1518 JUMP JUMPDEST SWAP1 POP SWAP1 JUMP JUMPDEST PUSH2 0xC15 PUSH2 0xD00 JUMP JUMPDEST PUSH1 0x0 DUP3 PUSH14 0xFFFFFFFFFFFFFFFFFFFFFFFFFFFF AND GT PUSH2 0xC68 JUMPI PUSH1 0x40 MLOAD PUSH32 0x8C379A000000000000000000000000000000000000000000000000000000000 DUP2 MSTORE PUSH1 0x4 ADD PUSH2 0xC5F SWAP1 PUSH2 0x124B JUMP JUMPDEST PUSH1 0x40 MLOAD DUP1 SWAP2 SUB SWAP1 REVERT JUMPDEST PUSH1 0x40 MLOAD DUP1 PUSH1 0x20 ADD PUSH1 0x40 MSTORE DUP1 DUP4 PUSH14 0xFFFFFFFFFFFFFFFFFFFFFFFFFFFF AND PUSH1 0x70 PUSH1 0xFF AND DUP7 PUSH14 0xFFFFFFFFFFFFFFFFFFFFFFFFFFFF AND PUSH28 0xFFFFFFFFFFFFFFFFFFFFFFFFFFFFFFFFFFFFFFFFFFFFFFFFFFFFFFFF AND SWAP1 SHL PUSH2 0xCC4 SWAP2 SWAP1 PUSH2 0x132E JUMP JUMPDEST PUSH28 0xFFFFFFFFFFFFFFFFFFFFFFFFFFFFFFFFFFFFFFFFFFFFFFFFFFFFFFFF AND DUP2 MSTORE POP SWAP1 POP SWAP3 SWAP2 POP POP JUMP JUMPDEST PUSH1 0x40 MLOAD DUP1 PUSH1 0x20 ADD PUSH1 0x40 MSTORE DUP1 PUSH1 0x0 DUP2 MSTORE POP SWAP1 JUMP JUMPDEST PUSH1 0x40 MLOAD DUP1 PUSH1 0x20 ADD PUSH1 0x40 MSTORE DUP1 PUSH1 0x0 PUSH28 0xFFFFFFFFFFFFFFFFFFFFFFFFFFFFFFFFFFFFFFFFFFFFFFFFFFFFFFFF AND DUP2 MSTORE POP SWAP1 JUMP JUMPDEST PUSH1 0x0 DUP2 CALLDATALOAD SWAP1 POP PUSH2 0xD40 DUP2 PUSH2 0x15B4 JUMP JUMPDEST SWAP3 SWAP2 POP POP JUMP JUMPDEST PUSH1 0x0 DUP2 MLOAD SWAP1 POP PUSH2 0xD55 DUP2 PUSH2 0x15CB JUMP JUMPDEST SWAP3 SWAP2 POP POP JUMP JUMPDEST PUSH1 0x0 DUP2 CALLDATALOAD SWAP1 POP PUSH2 0xD6A DUP2 PUSH2 0x15E2 JUMP JUMPDEST SWAP3 SWAP2 POP POP JUMP JUMPDEST PUSH1 0x0 DUP2 MLOAD SWAP1 POP PUSH2 0xD7F DUP2 PUSH2 0x15E2 JUMP JUMPDEST SWAP3 SWAP2 POP POP JUMP JUMPDEST PUSH1 0x0 DUP2 MLOAD SWAP1 POP PUSH2 0xD94 DUP2 PUSH2 0x15F9 JUMP JUMPDEST SWAP3 SWAP2 POP POP JUMP JUMPDEST PUSH1 0x0 DUP1 PUSH1 0x0 PUSH1 0x60 DUP5 DUP7 SUB SLT ISZERO PUSH2 0xDAF JUMPI PUSH1 0x0 DUP1 REVERT JUMPDEST PUSH1 0x0 PUSH2 0xDBD DUP7 DUP3 DUP8 ADD PUSH2 0xD31 JUMP JUMPDEST SWAP4 POP POP PUSH1 0x20 PUSH2 0xDCE DUP7 DUP3 DUP8 ADD PUSH2 0xD31 JUMP JUMPDEST SWAP3 POP POP PUSH1 0x40 PUSH2 0xDDF DUP7 DUP3 DUP8 ADD PUSH2 0xD5B JUMP JUMPDEST SWAP2 POP POP SWAP3 POP SWAP3 POP SWAP3 JUMP JUMPDEST PUSH1 0x0 DUP1 PUSH1 0x0 PUSH1 0x60 DUP5 DUP7 SUB SLT ISZERO PUSH2 0xDFE JUMPI PUSH1 0x0 DUP1 REVERT JUMPDEST PUSH1 0x0 PUSH2 0xE0C DUP7 DUP3 DUP8 ADD PUSH2 0xD46 JUMP JUMPDEST SWAP4 POP POP PUSH1 0x20 PUSH2 0xE1D DUP7 DUP3 DUP8 ADD PUSH2 0xD46 JUMP JUMPDEST SWAP3 POP POP PUSH1 0x40 PUSH2 0xE2E DUP7 DUP3 DUP8 ADD PUSH2 0xD85 JUMP JUMPDEST SWAP2 POP POP SWAP3 POP SWAP3 POP SWAP3 JUMP JUMPDEST PUSH1 0x0 PUSH1 0x20 DUP3 DUP5 SUB SLT ISZERO PUSH2 0xE4A JUMPI PUSH1 0x0 DUP1 REVERT JUMPDEST PUSH1 0x0 PUSH2 0xE58 DUP5 DUP3 DUP6 ADD PUSH2 0xD70 JUMP JUMPDEST SWAP2 POP POP SWAP3 SWAP2 POP POP JUMP JUMPDEST PUSH2 0xE6A DUP2 PUSH2 0x1452 JUMP JUMPDEST DUP3 MSTORE POP POP JUMP JUMPDEST PUSH2 0xE81 PUSH2 0xE7C DUP3 PUSH2 0x1452 JUMP JUMPDEST PUSH2 0x14EA JUMP JUMPDEST DUP3 MSTORE POP POP JUMP JUMPDEST PUSH2 0xE98 PUSH2 0xE93 DUP3 PUSH2 0x1464 JUMP JUMPDEST PUSH2 0x14FC JUMP JUMPDEST DUP3 MSTORE POP POP JUMP JUMPDEST PUSH1 0x0 PUSH2 0xEAB PUSH1 0x25 DUP4 PUSH2 0x12BC JUMP JUMPDEST SWAP2 POP PUSH32 0x556E697377617056324C6962726172793A204944454E544943414C5F41444452 PUSH1 0x0 DUP4 ADD MSTORE PUSH32 0x4553534553000000000000000000000000000000000000000000000000000000 PUSH1 0x20 DUP4 ADD MSTORE PUSH1 0x40 DUP3 ADD SWAP1 POP SWAP2 SWAP1 POP JUMP JUMPDEST PUSH1 0x0 PUSH2 0xF11 PUSH1 0x20 DUP4 PUSH2 0x12CD JUMP JUMPDEST SWAP2 POP PUSH32 0x96E8AC4277198FF8B6F785478AA9A39F403CB768DD02CBEE326C3E7DA348845F PUSH1 0x0 DUP4 ADD MSTORE PUSH1 0x20 DUP3 ADD SWAP1 POP SWAP2 SWAP1 POP JUMP JUMPDEST PUSH1 0x0 PUSH2 0xF51 PUSH1 0x22 DUP4 PUSH2 0x12BC JUMP JUMPDEST SWAP2 POP PUSH32 0x4578616D706C654F7261636C6553696D706C653A20494E56414C49445F544F4B PUSH1 0x0 DUP4 ADD MSTORE PUSH32 0x454E000000000000000000000000000000000000000000000000000000000000 PUSH1 0x20 DUP4 ADD MSTORE PUSH1 0x40 DUP3 ADD SWAP1 POP SWAP2 SWAP1 POP JUMP JUMPDEST PUSH1 0x0 PUSH2 0xFB7 PUSH1 0x1 DUP4 PUSH2 0x12CD JUMP JUMPDEST SWAP2 POP PUSH32 0xFF00000000000000000000000000000000000000000000000000000000000000 PUSH1 0x0 DUP4 ADD MSTORE PUSH1 0x1 DUP3 ADD SWAP1 POP SWAP2 SWAP1 POP JUMP JUMPDEST PUSH1 0x0 PUSH2 0xFF7 PUSH1 0x23 DUP4 PUSH2 0x12BC JUMP JUMPDEST SWAP2 POP PUSH32 0x4669786564506F696E743A204D554C5449504C49434154494F4E5F4F56455246 PUSH1 0x0 DUP4 ADD MSTORE PUSH32 0x4C4F570000000000000000000000000000000000000000000000000000000000 PUSH1 0x20 DUP4 ADD MSTORE PUSH1 0x40 DUP3 ADD SWAP1 POP SWAP2 SWAP1 POP JUMP JUMPDEST PUSH1 0x0 PUSH2 0x105D PUSH1 0x1E DUP4 PUSH2 0x12BC JUMP JUMPDEST SWAP2 POP PUSH32 0x556E697377617056324C6962726172793A205A45524F5F414444524553530000 PUSH1 0x0 DUP4 ADD MSTORE PUSH1 0x20 DUP3 ADD SWAP1 POP SWAP2 SWAP1 POP JUMP JUMPDEST PUSH1 0x0 PUSH2 0x109D PUSH1 0x17 DUP4 PUSH2 0x12BC JUMP JUMPDEST SWAP2 POP PUSH32 0x4669786564506F696E743A204449565F42595F5A45524F000000000000000000 PUSH1 0x0 DUP4 ADD MSTORE PUSH1 0x20 DUP3 ADD SWAP1 POP SWAP2 SWAP1 POP JUMP JUMPDEST PUSH2 0x10D9 DUP2 PUSH2 0x14A8 JUMP JUMPDEST DUP3 MSTORE POP POP JUMP JUMPDEST PUSH2 0x10E8 DUP2 PUSH2 0x14D0 JUMP JUMPDEST DUP3 MSTORE POP POP JUMP JUMPDEST PUSH2 0x10F7 DUP2 PUSH2 0x14DA JUMP JUMPDEST DUP3 MSTORE POP POP JUMP JUMPDEST PUSH1 0x0 PUSH2 0x1109 DUP3 DUP6 PUSH2 0xE70 JUMP JUMPDEST PUSH1 0x14 DUP3 ADD SWAP2 POP PUSH2 0x1119 DUP3 DUP5 PUSH2 0xE70 JUMP JUMPDEST PUSH1 0x14 DUP3 ADD SWAP2 POP DUP2 SWAP1 POP SWAP4 SWAP3 POP POP POP JUMP JUMPDEST PUSH1 0x0 PUSH2 0x1134 DUP3 PUSH2 0xFAA JUMP JUMPDEST SWAP2 POP PUSH2 0x1140 DUP3 DUP6 PUSH2 0xE70 JUMP JUMPDEST PUSH1 0x14 DUP3 ADD SWAP2 POP PUSH2 0x1150 DUP3 DUP5 PUSH2 0xE87 JUMP JUMPDEST PUSH1 0x20 DUP3 ADD SWAP2 POP PUSH2 0x115F DUP3 PUSH2 0xF04 JUMP JUMPDEST SWAP2 POP DUP2 SWAP1 POP SWAP4 SWAP3 POP POP POP JUMP JUMPDEST PUSH1 0x0 PUSH1 0x20 DUP3 ADD SWAP1 POP PUSH2 0x1180 PUSH1 0x0 DUP4 ADD DUP5 PUSH2 0xE61 JUMP JUMPDEST SWAP3 SWAP2 POP POP JUMP JUMPDEST PUSH1 0x0 PUSH1 0x80 DUP3 ADD SWAP1 POP PUSH2 0x119B PUSH1 0x0 DUP4 ADD DUP8 PUSH2 0xE61 JUMP JUMPDEST PUSH2 0x11A8 PUSH1 0x20 DUP4 ADD DUP7 PUSH2 0xE61 JUMP JUMPDEST PUSH2 0x11B5 PUSH1 0x40 DUP4 ADD DUP6 PUSH2 0x10DF JUMP JUMPDEST PUSH2 0x11C2 PUSH1 0x60 DUP4 ADD DUP5 PUSH2 0x10DF JUMP JUMPDEST SWAP6 SWAP5 POP POP POP POP POP JUMP JUMPDEST PUSH1 0x0 PUSH1 0x20 DUP3 ADD SWAP1 POP DUP2 DUP2 SUB PUSH1 0x0 DUP4 ADD MSTORE PUSH2 0x11E4 DUP2 PUSH2 0xE9E JUMP JUMPDEST SWAP1 POP SWAP2 SWAP1 POP JUMP JUMPDEST PUSH1 0x0 PUSH1 0x20 DUP3 ADD SWAP1 POP DUP2 DUP2 SUB PUSH1 0x0 DUP4 ADD MSTORE PUSH2 0x1204 DUP2 PUSH2 0xF44 JUMP JUMPDEST SWAP1 POP SWAP2 SWAP1 POP JUMP JUMPDEST PUSH1 0x0 PUSH1 0x20 DUP3 ADD SWAP1 POP DUP2 DUP2 SUB PUSH1 0x0 DUP4 ADD MSTORE PUSH2 0x1224 DUP2 PUSH2 0xFEA JUMP JUMPDEST SWAP1 POP SWAP2 SWAP1 POP JUMP JUMPDEST PUSH1 0x0 PUSH1 0x20 DUP3 ADD SWAP1 POP DUP2 DUP2 SUB PUSH1 0x0 DUP4 ADD MSTORE PUSH2 0x1244 DUP2 PUSH2 0x1050 JUMP JUMPDEST SWAP1 POP SWAP2 SWAP1 POP JUMP JUMPDEST PUSH1 0x0 PUSH1 0x20 DUP3 ADD SWAP1 POP DUP2 DUP2 SUB PUSH1 0x0 DUP4 ADD MSTORE PUSH2 0x1264 DUP2 PUSH2 0x1090 JUMP JUMPDEST SWAP1 POP SWAP2 SWAP1 POP JUMP JUMPDEST PUSH1 0x0 PUSH1 0x20 DUP3 ADD SWAP1 POP PUSH2 0x1280 PUSH1 0x0 DUP4 ADD DUP5 PUSH2 0x10D0 JUMP JUMPDEST SWAP3 SWAP2 POP POP JUMP JUMPDEST PUSH1 0x0 PUSH1 0x20 DUP3 ADD SWAP1 POP PUSH2 0x129B PUSH1 0x0 DUP4 ADD DUP5 PUSH2 0x10DF JUMP JUMPDEST SWAP3 SWAP2 POP POP JUMP JUMPDEST PUSH1 0x0 PUSH1 0x20 DUP3 ADD SWAP1 POP PUSH2 0x12B6 PUSH1 0x0 DUP4 ADD DUP5 PUSH2 0x10EE JUMP JUMPDEST SWAP3 SWAP2 POP POP JUMP JUMPDEST PUSH1 0x0 DUP3 DUP3 MSTORE PUSH1 0x20 DUP3 ADD SWAP1 POP SWAP3 SWAP2 POP POP JUMP JUMPDEST PUSH1 0x0 DUP2 SWAP1 POP SWAP3 SWAP2 POP POP JUMP JUMPDEST PUSH1 0x0 PUSH2 0x12E3 DUP3 PUSH2 0x14D0 JUMP JUMPDEST SWAP2 POP PUSH2 0x12EE DUP4 PUSH2 0x14D0 JUMP JUMPDEST SWAP3 POP DUP3 PUSH32 0xFFFFFFFFFFFFFFFFFFFFFFFFFFFFFFFFFFFFFFFFFFFFFFFFFFFFFFFFFFFFFFFF SUB DUP3 GT ISZERO PUSH2 0x1323 JUMPI PUSH2 0x1322 PUSH2 0x1549 JUMP JUMPDEST JUMPDEST DUP3 DUP3 ADD SWAP1 POP SWAP3 SWAP2 POP POP JUMP JUMPDEST PUSH1 0x0 PUSH2 0x1339 DUP3 PUSH2 0x14A8 JUMP JUMPDEST SWAP2 POP PUSH2 0x1344 DUP4 PUSH2 0x14A8 JUMP JUMPDEST SWAP3 POP DUP3 PUSH2 0x1354 JUMPI PUSH2 0x1353 PUSH2 0x1578 JUMP JUMPDEST JUMPDEST DUP3 DUP3 DIV SWAP1 POP SWAP3 SWAP2 POP POP JUMP JUMPDEST PUSH1 0x0 PUSH2 0x136A DUP3 PUSH2 0x14D0 JUMP JUMPDEST SWAP2 POP PUSH2 0x1375 DUP4 PUSH2 0x14D0 JUMP JUMPDEST SWAP3 POP DUP3 PUSH2 0x1385 JUMPI PUSH2 0x1384 PUSH2 0x1578 JUMP JUMPDEST JUMPDEST DUP3 DUP3 DIV SWAP1 POP SWAP3 SWAP2 POP POP JUMP JUMPDEST PUSH1 0x0 PUSH2 0x139B DUP3 PUSH2 0x14D0 JUMP JUMPDEST SWAP2 POP PUSH2 0x13A6 DUP4 PUSH2 0x14D0 JUMP JUMPDEST SWAP3 POP DUP2 PUSH32 0xFFFFFFFFFFFFFFFFFFFFFFFFFFFFFFFFFFFFFFFFFFFFFFFFFFFFFFFFFFFFFFFF DIV DUP4 GT DUP3 ISZERO ISZERO AND ISZERO PUSH2 0x13DF JUMPI PUSH2 0x13DE PUSH2 0x1549 JUMP JUMPDEST JUMPDEST DUP3 DUP3 MUL SWAP1 POP SWAP3 SWAP2 POP POP JUMP JUMPDEST PUSH1 0x0 PUSH2 0x13F5 DUP3 PUSH2 0x14D0 JUMP JUMPDEST SWAP2 POP PUSH2 0x1400 DUP4 PUSH2 0x14D0 JUMP JUMPDEST SWAP3 POP DUP3 DUP3 LT ISZERO PUSH2 0x1413 JUMPI PUSH2 0x1412 PUSH2 0x1549 JUMP JUMPDEST JUMPDEST DUP3 DUP3 SUB SWAP1 POP SWAP3 SWAP2 POP POP JUMP JUMPDEST PUSH1 0x0 PUSH2 0x1429 DUP3 PUSH2 0x14DA JUMP JUMPDEST SWAP2 POP PUSH2 0x1434 DUP4 PUSH2 0x14DA JUMP JUMPDEST SWAP3 POP DUP3 DUP3 LT ISZERO PUSH2 0x1447 JUMPI PUSH2 0x1446 PUSH2 0x1549 JUMP JUMPDEST JUMPDEST DUP3 DUP3 SUB SWAP1 POP SWAP3 SWAP2 POP POP JUMP JUMPDEST PUSH1 0x0 PUSH2 0x145D DUP3 PUSH2 0x1488 JUMP JUMPDEST SWAP1 POP SWAP2 SWAP1 POP JUMP JUMPDEST PUSH1 0x0 DUP2 SWAP1 POP SWAP2 SWAP1 POP JUMP JUMPDEST PUSH1 0x0 PUSH14 0xFFFFFFFFFFFFFFFFFFFFFFFFFFFF DUP3 AND SWAP1 POP SWAP2 SWAP1 POP JUMP JUMPDEST PUSH1 0x0 PUSH20 0xFFFFFFFFFFFFFFFFFFFFFFFFFFFFFFFFFFFFFFFF DUP3 AND SWAP1 POP SWAP2 SWAP1 POP JUMP JUMPDEST PUSH1 0x0 PUSH28 0xFFFFFFFFFFFFFFFFFFFFFFFFFFFFFFFFFFFFFFFFFFFFFFFFFFFFFFFF DUP3 AND SWAP1 POP SWAP2 SWAP1 POP JUMP JUMPDEST PUSH1 0x0 DUP2 SWAP1 POP SWAP2 SWAP1 POP JUMP JUMPDEST PUSH1 0x0 PUSH4 0xFFFFFFFF DUP3 AND SWAP1 POP SWAP2 SWAP1 POP JUMP JUMPDEST PUSH1 0x0 PUSH2 0x14F5 DUP3 PUSH2 0x1506 JUMP JUMPDEST SWAP1 POP SWAP2 SWAP1 POP JUMP JUMPDEST PUSH1 0x0 DUP2 SWAP1 POP SWAP2 SWAP1 POP JUMP JUMPDEST PUSH1 0x0 PUSH2 0x1511 DUP3 PUSH2 0x15A7 JUMP JUMPDEST SWAP1 POP SWAP2 SWAP1 POP JUMP JUMPDEST PUSH1 0x0 PUSH2 0x1523 DUP3 PUSH2 0x14D0 JUMP JUMPDEST SWAP2 POP PUSH2 0x152E DUP4 PUSH2 0x14D0 JUMP JUMPDEST SWAP3 POP DUP3 PUSH2 0x153E JUMPI PUSH2 0x153D PUSH2 0x1578 JUMP JUMPDEST JUMPDEST DUP3 DUP3 MOD SWAP1 POP SWAP3 SWAP2 POP POP JUMP JUMPDEST PUSH32 0x4E487B7100000000000000000000000000000000000000000000000000000000 PUSH1 0x0 MSTORE PUSH1 0x11 PUSH1 0x4 MSTORE PUSH1 0x24 PUSH1 0x0 REVERT JUMPDEST PUSH32 0x4E487B7100000000000000000000000000000000000000000000000000000000 PUSH1 0x0 MSTORE PUSH1 0x12 PUSH1 0x4 MSTORE PUSH1 0x24 PUSH1 0x0 REVERT JUMPDEST PUSH1 0x0 DUP2 PUSH1 0x60 SHL SWAP1 POP SWAP2 SWAP1 POP JUMP JUMPDEST PUSH2 0x15BD DUP2 PUSH2 0x1452 JUMP JUMPDEST DUP2 EQ PUSH2 0x15C8 JUMPI PUSH1 0x0 DUP1 REVERT JUMPDEST POP JUMP JUMPDEST PUSH2 0x15D4 DUP2 PUSH2 0x146E JUMP JUMPDEST DUP2 EQ PUSH2 0x15DF JUMPI PUSH1 0x0 DUP1 REVERT JUMPDEST POP JUMP JUMPDEST PUSH2 0x15EB DUP2 PUSH2 0x14D0 JUMP JUMPDEST DUP2 EQ PUSH2 0x15F6 JUMPI PUSH1 0x0 DUP1 REVERT JUMPDEST POP JUMP JUMPDEST PUSH2 0x1602 DUP2 PUSH2 0x14DA JUMP JUMPDEST DUP2 EQ PUSH2 0x160D JUMPI PUSH1 0x0 DUP1 REVERT JUMPDEST POP JUMP INVALID LOG2 PUSH5 0x6970667358 0x22 SLT KECCAK256 DUP2 PUSH28 0xA45A4C35B9304533D9BAB2D74EA68AFD781E249AD9B1F2B686ED7437 0x26 STOP PUSH5 0x736F6C6343 STOP ADDMOD STOP STOP CALLER "
        },
        "methodIdentifiers": {
          "PERIOD()": "b4d1d795",
          "blockTimestampLast()": "c5700a02",
          "consult(address,address,uint256)": "636cfa0c",
          "price0Average()": "a6bb4539",
          "price0CumulativeLast()": "5909c0d5",
          "price1Average()": "5e6aaf2c",
          "price1CumulativeLast()": "5a3d5493",
          "token0()": "0dfe1681",
          "token1()": "d21220a7",
          "update()": "a2e62045"
        }
      }
    }
  }
}