{
  "_format": "hh-sol-artifact-1",
  "contractName": "Gambling",
  "sourceName": "contracts/Gambling.sol",
  "abi": [
    {
      "inputs": [
        {
          "internalType": "address",
          "name": "_oracle",
          "type": "address"
        },
        {
          "internalType": "address",
          "name": "_token0",
          "type": "address"
        },
        {
          "internalType": "address",
          "name": "_token1",
          "type": "address"
        }
      ],
      "stateMutability": "nonpayable",
      "type": "constructor"
    },
    {
      "anonymous": false,
      "inputs": [
        {
          "indexed": false,
          "internalType": "address",
          "name": "sender",
          "type": "address"
        },
        {
          "indexed": false,
          "internalType": "uint256",
          "name": "amount",
          "type": "uint256"
        }
      ],
      "name": "Exit",
      "type": "event"
    },
    {
      "anonymous": false,
      "inputs": [
        {
          "indexed": false,
          "internalType": "address",
          "name": "sender",
          "type": "address"
        },
        {
          "indexed": false,
          "internalType": "uint256",
          "name": "amount",
          "type": "uint256"
        }
      ],
      "name": "Join",
      "type": "event"
    },
    {
      "anonymous": false,
      "inputs": [
        {
          "indexed": false,
          "internalType": "address",
          "name": "sender",
          "type": "address"
        },
        {
          "indexed": false,
          "internalType": "address",
          "name": "_token0",
          "type": "address"
        },
        {
          "indexed": false,
          "internalType": "address",
          "name": "_token1",
          "type": "address"
        },
        {
          "indexed": false,
          "internalType": "uint256",
          "name": "_endTime",
          "type": "uint256"
        },
        {
          "indexed": false,
          "internalType": "uint256",
          "name": "_gamblingPrice",
          "type": "uint256"
        },
        {
          "indexed": false,
          "internalType": "bool",
          "name": "_bigger",
          "type": "bool"
        },
        {
          "indexed": false,
          "internalType": "uint256",
          "name": "amount",
          "type": "uint256"
        }
      ],
      "name": "Start",
      "type": "event"
    },
    {
      "anonymous": false,
      "inputs": [
        {
          "indexed": false,
          "internalType": "address",
          "name": "winner",
          "type": "address"
        },
        {
          "indexed": false,
          "internalType": "uint256",
          "name": "price",
          "type": "uint256"
        },
        {
          "indexed": false,
          "internalType": "uint256",
          "name": "amount",
          "type": "uint256"
        }
      ],
      "name": "Withdraw",
      "type": "event"
    },
    {
      "inputs": [],
      "name": "exit",
      "outputs": [],
      "stateMutability": "nonpayable",
      "type": "function"
    },
    {
      "inputs": [],
      "name": "getAmount",
      "outputs": [
        {
          "internalType": "uint256",
          "name": "",
          "type": "uint256"
        }
      ],
      "stateMutability": "view",
      "type": "function"
    },
    {
      "inputs": [],
      "name": "join",
      "outputs": [],
      "stateMutability": "payable",
      "type": "function"
    },
    {
      "inputs": [
        {
          "internalType": "uint256",
          "name": "_endTime",
          "type": "uint256"
        },
        {
          "internalType": "uint256",
          "name": "_gamblingPrice",
          "type": "uint256"
        },
        {
          "internalType": "bool",
          "name": "_bigger",
          "type": "bool"
        }
      ],
      "name": "start",
      "outputs": [],
      "stateMutability": "payable",
      "type": "function"
    },
    {
      "inputs": [],
      "name": "withdraw",
      "outputs": [],
      "stateMutability": "nonpayable",
      "type": "function"
    }
  ],
  "bytecode": "0x60806040523480156200001157600080fd5b506040516200169a3803806200169a833981810160405281019062000037919062000119565b826000806101000a81548173ffffffffffffffffffffffffffffffffffffffff021916908373ffffffffffffffffffffffffffffffffffffffff16021790555081600160006101000a81548173ffffffffffffffffffffffffffffffffffffffff021916908373ffffffffffffffffffffffffffffffffffffffff16021790555080600260006101000a81548173ffffffffffffffffffffffffffffffffffffffff021916908373ffffffffffffffffffffffffffffffffffffffff160217905550505050620001bd565b6000815190506200011381620001a3565b92915050565b6000806000606084860312156200012f57600080fd5b60006200013f8682870162000102565b9350506020620001528682870162000102565b9250506040620001658682870162000102565b9150509250925092565b60006200017c8262000183565b9050919050565b600073ffffffffffffffffffffffffffffffffffffffff82169050919050565b620001ae816200016f565b8114620001ba57600080fd5b50565b6114cd80620001cd6000396000f3fe60806040526004361061004a5760003560e01c80633ccfd60b1461004f57806369c2920714610066578063b688a36314610082578063d321fe291461008c578063e9fad8ee146100b7575b600080fd5b34801561005b57600080fd5b506100646100ce565b005b610080600480360381019061007b9190610df8565b610531565b005b61008a6107e7565b005b34801561009857600080fd5b506100a1610aaf565b6040516100ae91906113d8565b60405180910390f35b3480156100c357600080fd5b506100cc610ab9565b005b6004544211610112576040517f08c379a000000000000000000000000000000000000000000000000000000000815260040161010990611338565b60405180910390fd5b600073ffffffffffffffffffffffffffffffffffffffff16600660009054906101000a900473ffffffffffffffffffffffffffffffffffffffff1673ffffffffffffffffffffffffffffffffffffffff1614156101a4576040517f08c379a000000000000000000000000000000000000000000000000000000000815260040161019b906112b8565b60405180910390fd5b600047116101e7576040517f08c379a00000000000000000000000000000000000000000000000000000000081526004016101de90611318565b60405180910390fd5b60008060009054906101000a900473ffffffffffffffffffffffffffffffffffffffff1673ffffffffffffffffffffffffffffffffffffffff1663636cfa0c600160009054906101000a900473ffffffffffffffffffffffffffffffffffffffff16600260009054906101000a900473ffffffffffffffffffffffffffffffffffffffff16670de0b6b3a76400006040518463ffffffff1660e01b8152600401610293939291906111e1565b602060405180830381600087803b1580156102ad57600080fd5b505af11580156102c1573d6000803e3d6000fd5b505050506040513d601f19601f820116820180604052508101906102e59190610dcf565b9050600080479050600354831061035d57600560009054906101000a900460ff1661033257600660009054906101000a900473ffffffffffffffffffffffffffffffffffffffff16610356565b600560019054906101000a900473ffffffffffffffffffffffffffffffffffffffff165b91506103c0565b600560009054906101000a900460ff1661039957600560019054906101000a900473ffffffffffffffffffffffffffffffffffffffff166103bd565b600660009054906101000a900473ffffffffffffffffffffffffffffffffffffffff165b91505b60008273ffffffffffffffffffffffffffffffffffffffff16826040516103e69061115d565b60006040518083038185875af1925050503d8060008114610423576040519150601f19603f3d011682016040523d82523d6000602084013e610428565b606091505b505090508061046c576040517f08c379a0000000000000000000000000000000000000000000000000000000008152600401610463906113b8565b60405180910390fd5b6000600560016101000a81548173ffffffffffffffffffffffffffffffffffffffff021916908373ffffffffffffffffffffffffffffffffffffffff1602179055506000600660006101000a81548173ffffffffffffffffffffffffffffffffffffffff021916908373ffffffffffffffffffffffffffffffffffffffff1602179055507ff279e6a1f5e320cca91135676d9cb6e44ca8a08c0b88342bcdb1144f6511b56883858460405161052393929190611241565b60405180910390a150505050565b600073ffffffffffffffffffffffffffffffffffffffff16600560019054906101000a900473ffffffffffffffffffffffffffffffffffffffff1673ffffffffffffffffffffffffffffffffffffffff16146105c2576040517f08c379a00000000000000000000000000000000000000000000000000000000081526004016105b990611398565b60405180910390fd5b60003411610605576040517f08c379a00000000000000000000000000000000000000000000000000000000081526004016105fc90611378565b60405180910390fd5b824210610647576040517f08c379a000000000000000000000000000000000000000000000000000000000815260040161063e90611358565b60405180910390fd5b8260048190555080600560006101000a81548160ff021916908315150217905550816003819055503460078190555033600560016101000a81548173ffffffffffffffffffffffffffffffffffffffff021916908373ffffffffffffffffffffffffffffffffffffffff16021790555060008054906101000a900473ffffffffffffffffffffffffffffffffffffffff1673ffffffffffffffffffffffffffffffffffffffff1663a2e620456040518163ffffffff1660e01b8152600401600060405180830381600087803b15801561071f57600080fd5b505af1158015610733573d6000803e3d6000fd5b505050507f981c9329e070bf8ce2be2308f5e056e8df52ec38f120559cd0f2c579e7af0681600560019054906101000a900473ffffffffffffffffffffffffffffffffffffffff16600160009054906101000a900473ffffffffffffffffffffffffffffffffffffffff16600260009054906101000a900473ffffffffffffffffffffffffffffffffffffffff168686866007546040516107da9796959493929190611172565b60405180910390a1505050565b600454421061082b576040517f08c379a000000000000000000000000000000000000000000000000000000000815260040161082290611358565b60405180910390fd5b3373ffffffffffffffffffffffffffffffffffffffff16600560019054906101000a900473ffffffffffffffffffffffffffffffffffffffff1673ffffffffffffffffffffffffffffffffffffffff1614156108bc576040517f08c379a00000000000000000000000000000000000000000000000000000000081526004016108b3906112f8565b60405180910390fd5b600073ffffffffffffffffffffffffffffffffffffffff16600660009054906101000a900473ffffffffffffffffffffffffffffffffffffffff1673ffffffffffffffffffffffffffffffffffffffff161461094d576040517f08c379a000000000000000000000000000000000000000000000000000000000815260040161094490611278565b60405180910390fd5b6007543414610991576040517f08c379a0000000000000000000000000000000000000000000000000000000008152600401610988906112d8565b60405180910390fd5b33600660006101000a81548173ffffffffffffffffffffffffffffffffffffffff021916908373ffffffffffffffffffffffffffffffffffffffff16021790555060008054906101000a900473ffffffffffffffffffffffffffffffffffffffff1673ffffffffffffffffffffffffffffffffffffffff1663a2e620456040518163ffffffff1660e01b8152600401600060405180830381600087803b158015610a3a57600080fd5b505af1158015610a4e573d6000803e3d6000fd5b505050507fb4e09949657f21548b58afe74e7b86cd2295da5ff1598ae1e5faecb1cf19ca95600660009054906101000a900473ffffffffffffffffffffffffffffffffffffffff1634604051610aa5929190611218565b60405180910390a1565b6000600754905090565b3373ffffffffffffffffffffffffffffffffffffffff16600560019054906101000a900473ffffffffffffffffffffffffffffffffffffffff1673ffffffffffffffffffffffffffffffffffffffff1614610b49576040517f08c379a0000000000000000000000000000000000000000000000000000000008152600401610b4090611298565b60405180910390fd5b600073ffffffffffffffffffffffffffffffffffffffff16600660009054906101000a900473ffffffffffffffffffffffffffffffffffffffff1673ffffffffffffffffffffffffffffffffffffffff1614610bda576040517f08c379a0000000000000000000000000000000000000000000000000000000008152600401610bd190611278565b60405180910390fd5b60004790506000600560019054906101000a900473ffffffffffffffffffffffffffffffffffffffff1673ffffffffffffffffffffffffffffffffffffffff1682604051610c279061115d565b60006040518083038185875af1925050503d8060008114610c64576040519150601f19603f3d011682016040523d82523d6000602084013e610c69565b606091505b5050905080610cad576040517f08c379a0000000000000000000000000000000000000000000000000000000008152600401610ca4906113b8565b60405180910390fd5b6000600560016101000a81548173ffffffffffffffffffffffffffffffffffffffff021916908373ffffffffffffffffffffffffffffffffffffffff1602179055506000600660006101000a81548173ffffffffffffffffffffffffffffffffffffffff021916908373ffffffffffffffffffffffffffffffffffffffff1602179055507f22d324652c93739755cf4581508b60875ebdd78c20c0cff5cf8e23452b299631600560019054906101000a900473ffffffffffffffffffffffffffffffffffffffff1683604051610d84929190611218565b60405180910390a15050565b600081359050610d9f81611469565b92915050565b600081359050610db481611480565b92915050565b600081519050610dc981611480565b92915050565b600060208284031215610de157600080fd5b6000610def84828501610dba565b91505092915050565b600080600060608486031215610e0d57600080fd5b6000610e1b86828701610da5565b9350506020610e2c86828701610da5565b9250506040610e3d86828701610d90565b9150509250925092565b610e508161140f565b82525050565b610e5f81611421565b82525050565b610e6e81611457565b82525050565b6000610e816012836113fe565b91507f706c617965723120686173206a6f696e656400000000000000000000000000006000830152602082019050919050565b6000610ec16015836113fe565b91507f6f6e6c7920706c61796572302063616e206578697400000000000000000000006000830152602082019050919050565b6000610f01601d836113fe565b91507f706c6179657231206e6f74206a6f696e2c20706c6561736520657869740000006000830152602082019050919050565b6000610f416013836113fe565b91507f6a6f696e657220616d6f756e742077726f6e67000000000000000000000000006000830152602082019050919050565b6000610f816012836113fe565b91507f706c61796572312069732070616c7965723000000000000000000000000000006000830152602082019050919050565b6000610fc1600a836113fe565b91507f6e6f2062616c616e6365000000000000000000000000000000000000000000006000830152602082019050919050565b60006110016013836113fe565b91507f656e6454696d65206e6f742072656163686564000000000000000000000000006000830152602082019050919050565b60006110416013836113fe565b91507f656e6454696d65206861732072656163686564000000000000000000000000006000830152602082019050919050565b60006110816000836113f3565b9150600082019050919050565b600061109b601a836113fe565b91507f6372656174657220616d6f756e74206c657373207468616e20300000000000006000830152602082019050919050565b60006110db6012836113fe565b91507f67616d626c696e672068617320737461727400000000000000000000000000006000830152602082019050919050565b600061111b6014836113fe565b91507f6661696c656420746f2073656e642045746865720000000000000000000000006000830152602082019050919050565b6111578161144d565b82525050565b600061116882611074565b9150819050919050565b600060e082019050611187600083018a610e47565b6111946020830189610e47565b6111a16040830188610e47565b6111ae606083018761114e565b6111bb608083018661114e565b6111c860a0830185610e56565b6111d560c083018461114e565b98975050505050505050565b60006060820190506111f66000830186610e47565b6112036020830185610e47565b6112106040830184610e65565b949350505050565b600060408201905061122d6000830185610e47565b61123a602083018461114e565b9392505050565b60006060820190506112566000830186610e47565b611263602083018561114e565b611270604083018461114e565b949350505050565b6000602082019050818103600083015261129181610e74565b9050919050565b600060208201905081810360008301526112b181610eb4565b9050919050565b600060208201905081810360008301526112d181610ef4565b9050919050565b600060208201905081810360008301526112f181610f34565b9050919050565b6000602082019050818103600083015261131181610f74565b9050919050565b6000602082019050818103600083015261133181610fb4565b9050919050565b6000602082019050818103600083015261135181610ff4565b9050919050565b6000602082019050818103600083015261137181611034565b9050919050565b600060208201905081810360008301526113918161108e565b9050919050565b600060208201905081810360008301526113b1816110ce565b9050919050565b600060208201905081810360008301526113d18161110e565b9050919050565b60006020820190506113ed600083018461114e565b92915050565b600081905092915050565b600082825260208201905092915050565b600061141a8261142d565b9050919050565b60008115159050919050565b600073ffffffffffffffffffffffffffffffffffffffff82169050919050565b6000819050919050565b60006114628261144d565b9050919050565b61147281611421565b811461147d57600080fd5b50565b6114898161144d565b811461149457600080fd5b5056fea2646970667358221220390218f9d4759b880df439703e7af66da63666ad91bfdcf08cef97bd05e31f5464736f6c63430008000033",
  "linkReferences": {},
  "deployedLinkReferences": {}
}