{
  "_format": "hh-sol-artifact-1",
  "contractName": "PriceConsumer",
  "sourceName": "contracts/PriceConsumer.sol",
  "abi": [
    {
      "inputs": [
        {
          "internalType": "address",
          "name": "_registry",
          "type": "address"
        }
      ],
      "stateMutability": "nonpayable",
      "type": "constructor"
    },
    {
      "anonymous": false,
      "inputs": [
        {
          "indexed": false,
          "internalType": "address",
          "name": "token0",
          "type": "address"
        },
        {
          "indexed": false,
          "internalType": "address",
          "name": "token1",
          "type": "address"
        },
        {
          "indexed": false,
          "internalType": "uint256",
          "name": "amountIn",
          "type": "uint256"
        },
        {
          "indexed": false,
          "internalType": "uint256",
          "name": "amountOut",
          "type": "uint256"
        }
      ],
      "name": "Consult",
      "type": "event"
    },
    {
      "inputs": [
        {
          "internalType": "address",
          "name": "token0",
          "type": "address"
        },
        {
          "internalType": "address",
          "name": "token1",
          "type": "address"
        },
        {
          "internalType": "uint256",
          "name": "amountIn",
          "type": "uint256"
        }
      ],
      "name": "consult",
      "outputs": [
        {
          "internalType": "uint256",
          "name": "amountOut",
          "type": "uint256"
        }
      ],
      "stateMutability": "nonpayable",
      "type": "function"
    },
    {
      "inputs": [],
      "name": "getEthUsdPrice",
      "outputs": [
        {
          "internalType": "int256",
          "name": "",
          "type": "int256"
        }
      ],
      "stateMutability": "view",
      "type": "function"
    },
    {
      "inputs": [
        {
          "internalType": "address",
          "name": "base",
          "type": "address"
        },
        {
          "internalType": "address",
          "name": "quote",
          "type": "address"
        }
      ],
      "name": "getPrice",
      "outputs": [
        {
          "internalType": "int256",
          "name": "",
          "type": "int256"
        }
      ],
      "stateMutability": "view",
      "type": "function"
    },
    {
      "inputs": [],
      "name": "update",
      "outputs": [],
      "stateMutability": "nonpayable",
      "type": "function"
    }
  ],
  "bytecode": "0x608060405234801561001057600080fd5b506040516106f93803806106f98339818101604052810190610032919061008d565b806000806101000a81548173ffffffffffffffffffffffffffffffffffffffff021916908373ffffffffffffffffffffffffffffffffffffffff160217905550506100ff565b600081519050610087816100e8565b92915050565b60006020828403121561009f57600080fd5b60006100ad84828501610078565b91505092915050565b60006100c1826100c8565b9050919050565b600073ffffffffffffffffffffffffffffffffffffffff82169050919050565b6100f1816100b6565b81146100fc57600080fd5b50565b6105eb8061010e6000396000f3fe608060405234801561001057600080fd5b506004361061004c5760003560e01c8063636cfa0c14610051578063a0a8045e14610081578063a2e620451461009f578063ac41865a146100a9575b600080fd5b61006b60048036038101906100669190610366565b6100d9565b60405161007891906104e2565b60405180910390f35b610089610130565b60405161009691906104c7565b60405180910390f35b6100a7610201565b005b6100c360048036038101906100be919061032a565b610203565b6040516100d091906104c7565b60405180910390f35b6000806100e68585610203565b90507f33618b544b19685daab1df7cfadd7420c958b280dc57254ad32f21c3bae459278585858460405161011d9493929190610482565b60405180910390a1809150509392505050565b60008060008054906101000a900473ffffffffffffffffffffffffffffffffffffffff1673ffffffffffffffffffffffffffffffffffffffff1663bcfd032d73eeeeeeeeeeeeeeeeeeeeeeeeeeeeeeeeeeeeeeee6103486040518363ffffffff1660e01b81526004016101a4929190610459565b60a06040518083038186803b1580156101bc57600080fd5b505afa1580156101d0573d6000803e3d6000fd5b505050506040513d601f19601f820116820180604052508101906101f491906103b5565b5050509150508091505090565b565b60008060008054906101000a900473ffffffffffffffffffffffffffffffffffffffff1673ffffffffffffffffffffffffffffffffffffffff1663bcfd032d85856040518363ffffffff1660e01b8152600401610261929190610459565b60a06040518083038186803b15801561027957600080fd5b505afa15801561028d573d6000803e3d6000fd5b505050506040513d601f19601f820116820180604052508101906102b191906103b5565b5050509150508091505092915050565b6000813590506102d081610559565b92915050565b6000815190506102e581610570565b92915050565b6000813590506102fa81610587565b92915050565b60008151905061030f81610587565b92915050565b6000815190506103248161059e565b92915050565b6000806040838503121561033d57600080fd5b600061034b858286016102c1565b925050602061035c858286016102c1565b9150509250929050565b60008060006060848603121561037b57600080fd5b6000610389868287016102c1565b935050602061039a868287016102c1565b92505060406103ab868287016102eb565b9150509250925092565b600080600080600060a086880312156103cd57600080fd5b60006103db88828901610315565b95505060206103ec888289016102d6565b94505060406103fd88828901610300565b935050606061040e88828901610300565b925050608061041f88828901610315565b9150509295509295909350565b610435816104fd565b82525050565b6104448161050f565b82525050565b61045381610539565b82525050565b600060408201905061046e600083018561042c565b61047b602083018461042c565b9392505050565b6000608082019050610497600083018761042c565b6104a4602083018661042c565b6104b1604083018561044a565b6104be606083018461044a565b95945050505050565b60006020820190506104dc600083018461043b565b92915050565b60006020820190506104f7600083018461044a565b92915050565b600061050882610519565b9050919050565b6000819050919050565b600073ffffffffffffffffffffffffffffffffffffffff82169050919050565b6000819050919050565b600069ffffffffffffffffffff82169050919050565b610562816104fd565b811461056d57600080fd5b50565b6105798161050f565b811461058457600080fd5b50565b61059081610539565b811461059b57600080fd5b50565b6105a781610543565b81146105b257600080fd5b5056fea2646970667358221220fa3c036a701b909a7c0928b31786a254a514f362dd38540cbc79cfdc28c8b1ea64736f6c63430008000033",
  "linkReferences": {},
  "deployedLinkReferences": {}
}